:020000040800F2
:100000000000082475C900082913000831130008EE
:1000100039130008411300084913000800000000CC
:100020000000000000000000000000005113000864
:100030005F130008000000006D1300087B13000828
:10004000C5C90008C5C90008C5C90008C5C9000858
:10005000C5C90008C5C90008C5C90008C5C9000848
:10006000C5C90008C5C90008C5C90008C5C9000838
:10007000C5C90008C5C90008C5C90008C5C9000828
:10008000C5C90008C5C90008C5C90008C5C9000818
:10009000C5C90008C5C90008C5C90008C5C9000808
:1000A000C5C90008C5C90008C5C90008C5C90008F8
:1000B000C5C90008C5C90008C5C90008C5C90008E8
:1000C000C5C90008C5C90008C5C90008C5C90008D8
:1000D000C5C900089D130008B1130008C513000826
:1000E000C5C90008C5C9000800000000C5C900084E
:1000F000C5C90008C5C90008C5C90008C5C90008A8
:10010000C5C90008C5C90008C5C90008C5C9000897
:10011000C5C90008C5C90008C5C90008C5C9000887
:10012000C5C90008C5C90008C5C90008C5C9000877
:10013000C5C90008C5C90008C5C90008C5C9000867
:1001400000000000000000000000000000000000AF
:10015000C5C90008C5C90008C5C90008D9130008E9
:10016000C5C90008C5C90008C5C90008C5C9000837
:10017000C5C90008C5C90008C5C9000800000000BD
:10018000C5C90008C5C90008C5C90008C5C9000817
:10019000C5C90008C5C90008C5C90008C5C9000807
:1001A000C5C90008C5C90008C5C90008C5C90008F7
:1001B000C5C90008C5C90008C5C90008C5C90008E7
:1001C000C5C90008C5C90008C5C90008C5C90008D7
:1001D000C5C9000889130008C5C90008C5C90008B9
:1001E000C5C90008C5C90008C5C90008C5C90008B7
:1001F000C5C90008C5C90008C5C90008C5C90008A7
:10020000C5C90008C5C90008C5C90008C5C9000896
:10021000C5C90008C5C90008C5C90008C5C9000886
:10022000C5C90008C5C90008C5C90008000000000C
:10023000C5C90008C5C9000800000000C5C90008FC
:10024000C5C90008C5C90008C5C90008C5C9000856
:10025000C5C90008C5C90008C5C90008C5C9000846
:10026000C5C90008C5C90008C5C90008C5C9000836
:10027000C5C90008C5C90008C5C90008C5C9000826
:10028000C5C9000800000000C5C900080000000042
:0802900000000000C5C90008D0
:1002A00001F0FF01102A2BDB10F0070F08D010F827
:1002B000013B013A8B422DD010F0070F42B3F6D12B
:1002C000F0B441EA012141EA014122F007047FF044
:1002D00000070023F0E80256083C85EA010586EA9B
:1002E000010685FA47F5A3FA87F586FA47F6A5FAD7
:1002F00087F68EB9EED1F0BC01F0FF0102F00702E3
:1003000032B110F8013B013A83EA010313B1F8D18D
:100310000020704701387047002D06BF354603386E
:10032000073815F0010F07D1013015F4807F02BFA7
:10033000013015F4C03F0130F0BC0138704700BFF8
:1003400053B94AB9002908BF00281CBF4FF0FF313C
:100350004FF0FF3000F00CB8ADF1080C6DE904CEA1
:100360000DF0ECFDDDF804E0DDE9022304B0704798
:10037000704700BF0348044B834202D0034B03B1D4
:1003800018477047F4010024F40100240000000025
:100390000548064B1B1AD90F01EBA301491002D0E7
:1003A000034B03B118477047F4010024F401002403
:1003B0000000000010B5064C237843B9FFF7DAFFC0
:1003C000044B13B10448AFF300800123237010BD28
:1003D000F40100240000000034E2000808B5054BD9
:1003E0001BB105490548AFF30080BDE80840FFF7A1
:1003F000CFBF00BF00000000F801002434E2000875
:1004000080B584B000AF3F4B5B6903F40033002B31
:100410001BD1BFF34F8F00BFBFF36F8F00BF394BAE
:100420000022C3F85022BFF34F8F00BFBFF36F8F7E
:1004300000BF344B5B69334A43F400335361BFF36D
:100440004F8F00BFBFF36F8F00E000BF2D4B5B6984
:1004500003F48033002B38D12A4B0022C3F88420C8
:10046000BFF34F8F00BF274BD3F88030FB60FB6892
:100470005B0BC3F30E03BB60FB68DB08C3F309032C
:100480007B60BB685A0143F6E07313407A689207B9
:100490001C491343C1F860327B685A1E7A60002BF6
:1004A000EFD1BB685A1EBA60002BE5D1BFF34F8F66
:1004B00000BF144B5B69134A43F480335361BFF3AD
:1004C0004F8F00BFBFF36F8F00E000BF01F04CF80B
:1004D00000F0EAFC0AF0FEF900F0A4FC00F072FC67
:1004E00000F07CFC00F086FC00F090FC0CF06CFA54
:1004F00000F00AF800F0B8F8012001F0C7F800BFDA
:10050000F8E700BF00ED00E080B582B000AF01F079
:10051000B1F83860002000F04FFB01224FF4005189
:100520004D4802F029F94D4A3B6813604C4A3B683C
:10053000136000237B6085E04A497A6813469B007C
:100540001344DB000B440A3300221A7045497A68D1
:1005500013469B001344DB000B440C334FF6FF7231
:100560001A8040497A6813469B001344DB000B4411
:1005700010333A681A603B497A6813469B0013446B
:10058000DB000B44143300221A6036497A681346A4
:100590009B001344DB000B44053300221A703149E1
:1005A0007A6813469B001344DB000B441833002287
:1005B0001A602C497A6813469B001344DB000B44F5
:1005C0001C3300221A6027497A6813469B001344A3
:1005D000DB000B44203300221A8022497A6813463C
:1005E0009B001344DB000B44223300221A801D4978
:1005F0007A6813469B001344DB000B44243300222B
:100600001A8018497A6813469B001344DB000B4498
:10061000263300221A7013497A6813469B0013444C
:10062000DB000B44273300221A707A6813469B00C4
:100630001344DB000B4A1344184600F091F97B6821
:1006400001337B607B68032B7FF676AF00BF00BF72
:100650000837BD4680BD00BF00080258640400246E
:10066000680400240000002480B582B000AF01F0CF
:1006700001F8786000F0C2FA0346184600F09CFAD0
:100680000E4B1B687A68D31A1D2B05D90B4A7B6861
:100690001360786800F018F8094B1B687A68D31A61
:1006A000F92B07D9064A7B6813604FF400510548BF
:1006B00002F07BF800BF0837BD4680BD640400240B
:1006C0006804002400080258F0B5ADF5017D20AFA4
:1006D00007F5C073A3F58A731860002387F87F318C
:1006E000002387F87E310023C7F878315AE0D7F825
:1006F000782113469B001344DB00944A1A4407F503
:10070000C073A3F58A731968104600F0E6F9034632
:10071000002B0AD00122D7F8783102FA03F3DAB2BB
:1007200097F87F31134387F87F31D7F87821134644
:100730009B001344DB00854A1A4407F5C073A3F5F8
:100740008A731968104600F0E6F90346002B0AD0B8
:100750000122D7F8783102FA03F3DAB297F87E3142
:10076000134387F87E31D7F8782113469B00134452
:10077000DB00764A1A4407F5C073A3F58A7319683B
:10078000104600F0E7F90346194607F5C073A3F5D4
:100790008873D7F8782123F81210D7F8783101330D
:1007A000C7F87831D7F87831032BA0D9684B1B688C
:1007B000BB66BB6E0133664A136007F5C073A3F5D1
:1007C00088731B887B6607F5C073A3F588735B8805
:1007D0003B6607F5C073A3F588739B88FB6507F537
:1007E000C073A3F58873DB88BB655A4B1B787B65A8
:1007F00097F87F213A6597F87E11F964534B986911
:10080000B864524B1D6C7D64504B9E6E3E644F4BE2
:10081000D3F89000F8634D4BDA69BA634B4B596CCF
:1008200079634A4BD86E3863484BD3F89450FD62D5
:10083000464B1B8CBB62454BB3F848307B62434B45
:10084000B3F870303B62414BB3F89830FB613F4BDB
:100850005B8CBB613D4BB3F84A307B613B4BB3F8DB
:1008600072303B61394BB3F89A30FB60374B9B8C4D
:10087000BB60364BB3F84C307B60344BB3F874300C
:100880001E46324BB3F89C301D46304B5B791C46FC
:100890002E4B93F82D3019462C4B93F855301A46B1
:1008A0002A4B93F87D3007F178001E931D921C911E
:1008B0001B941A9519967E681896BE681796FE685E
:1008C00016963E6915967E691496BE691396FE6962
:1008D00012963E6A11967E6A1096BE6A0F96FD6A5F
:1008E0000E953C6B0D94796B0C91BA6B0B92FC6B73
:1008F0000A943E6C09967D6C0895BC6C0794F96C63
:1009000006913A6D05927A6D0492BA6D0392FA6D72
:1009100002923A6E01927A6E0092BB6E0E4A4FF4CA
:1009200080710CF015FE07F17803184600F027F9E6
:1009300003461A4607F17803194608480CF066F991
:1009400000BF07F5C277BD46F0BD00BF0000002420
:10095000600400246C0400244CE20008D4E2000887
:1009600080B582B000AF78607B68002B0CD07B68CC
:100970001B68002B08D07B6818687B680433012251
:10098000194606F093F800E000BF0837BD4680BD69
:1009900080B487B000AFF8600B467A60FB72FB68EA
:1009A000002B00F08E80FB681B697A68D31A0A2B33
:1009B00002D9FB6800229A72FB687A681A61FB68A8
:1009C000FA7A5A71FB689B695A1CFB689A61FB684A
:1009D0009B7A002B1CD1FB7AFF2B19D0FB681B8C58
:1009E0004FF6FF72934205D0FB681B8C01339AB21D
:1009F000FB681A84FB6893F82730FF2B63D0FB68F1
:100A000093F827300133DAB2FB6883F827205AE0E5
:100A1000FB689B7A5A1CD1B2FA6891721A46FB683D
:100A20001344FA7A9A71FB689B7A032B4DD9FB68C1
:100A300000229A72FB689A79FB68DB791344DAB278
:100A4000FB681B7A1344FB75FB685B7AFA7D9A425C
:100A500019D0FB685B8C4FF6FF72934205D0FB68A0
:100A60005B8C01339AB2FB685A84FB6893F8273099
:100A7000FF2B2CD0FB6893F827300133DAB2FB68E8
:100A800083F8272023E0FB68DB791BB21B021AB234
:100A9000FB681B7A1BB213431BB29AB2FB689A81A4
:100AA000FB687A685A61FB68DB695A1CFB68DA618B
:100AB000FB68012283F82620FB68002283F82720A8
:100AC00006E000BF04E000BF02E000BF00E000BF9E
:100AD0001C37BD465DF8047B704780B483B000AF1F
:100AE000786039607B68002B04D07B6893F82630EF
:100AF000002B01D1002308E07B685B693A68D31AB8
:100B0000782B01D9002300E0012318460C37BD469D
:100B10005DF8047B704780B582B000AF78603960C3
:100B20007B68002B01D1012310E039687868FFF75A
:100B3000D4FF0346002B01D1012307E07B6893F823
:100B40002730002B01D0012300E00023184608378E
:100B5000BD4680BD80B582B000AF7860396039682D
:100B60007868FFF7BAFF0346002B02D14FF6FF73F8
:100B700001E07B689B8918460837BD4680BD80B47C
:100B800085B000AF78600023FB7307E07B681A78BC
:100B9000FB7B5340FB737B6801337B607B68002BDE
:100BA00003D07B681B78002BF0D1FB7B18461437F1
:100BB000BD465DF8047B704780B582B000AF034648
:100BC000FB71FB79002B01D0012200E00022094BD0
:100BD0001A70084B1B78012B14BF01230023DBB2D2
:100BE0001A464FF48061044801F0C6FD00BF083783
:100BF000BD4680BD6C0400240010025880B500AFD3
:100C00004FF40061054801F09FFD0346002B01D120
:100C1000012300E00023184680BD00BF00100258E9
:100C200080B485B000AF78600023FB6015E0104908
:100C3000FA6813469B001344DB000B441B687A6878
:100C40009A4207D1FA6813469B001344DB00084A16
:100C5000134406E0FB680133FB60FB68032BE6D915
:100C6000002318461437BD465DF8047B704700BF6B
:100C70000000002490B585B000AF78607868FFF779
:100C8000CFFFF860FB68002B0CD0FB681C7900F0EC
:100C9000F1FC03461A462146F868FFF779FEF8682A
:100CA000FFF75EFE00BF1437BD4690BD80B584B02F
:100CB00000AF78607868FFF7B3FFF860FB68002B3F
:100CC0002ED0FB6800229A72FB689B8C4FF6FF7255
:100CD000934205D0FB689B8C01339AB2FB689A84DF
:100CE000FB6893F82730FF2B07D0FB6893F8273079
:100CF0000133DAB2FB6883F827207B681B6808227F
:100D00001A627B681B6804221A627B681B680222D5
:100D10001A627B681B6801221A62F868FFF720FEDE
:100D200000BF1037BD4680BD80B582B000AF78608F
:100D300039607B683A681A607B684FF4E1325A6028
:100D40007B6800229A607B680022DA607B68002260
:100D50001A617B680C225A617B6800229A617B6869
:100D60000022DA617B6800221A627B6800225A62E4
:100D70007B6800229A62786805F048FE0346002BE3
:100D800001D000F05DF90021786808F022F90346EF
:100D9000002B01D000F054F90021786808F057F9D1
:100DA0000346002B01D000F04BF9786808F0D8F822
:100DB0000346002B01D000F043F900BF0837BD46C1
:100DC00080BD000080B500AF02490348FFF7ACFFCB
:100DD00000BF80BD001001401002002480B500AFAC
:100DE00002490348FFF7A0FF00BF80BD0044004058
:100DF000A402002480B500AF02490348FFF794FF26
:100E000000BF80BD004800403803002480B500AF1B
:100E100002490348FFF788FF00BF80BD001401406E
:100E2000CC03002480B586B000AF3B1D00221A60C1
:100E30005A609A60DA601A61194BD3F8E030184AA8
:100E400043F01003C2F8E030154BD3F8E03003F064
:100E500010033B603B6801224FF48061114801F0B0
:100E60008BFC4FF480637B601123BB600123FB602C
:100E700000233B613B1D19460A4801F0ABFA4FF4D1
:100E800000637B600023BB600123FB603B1D1946B0
:100E9000044801F09FFA00BF1837BD4680BD00BF6F
:100EA000004402580010025880B5CEB000AF07F1E0
:100EB000EC034C22002118460CF0BCFB07F1CC03DC
:100EC0002022002118460CF0B5FB07F59C73A3F512
:100ED00098731846C0231A4600210CF0ABFB022081
:100EE00002F038FF07F59C73A3F59A7300221A608D
:100EF000514B9B69504A43F4404393614E4B9B696D
:100F000003F4404207F59C73A3F59A731A604B4BA8
:100F1000DB6A4A4A43F00103D362484BDB6A03F0C1
:100F2000010207F59C73A3F59A731A6007F59C7389
:100F3000A3F59A731B6800BF3F4B9B6903F40053F2
:100F4000B3F5005FF8D12123C7F8EC304FF48033BC
:100F5000C7F8F0300123C7F804310223C7F8103175
:100F60000223C7F814310523C7F81831C023C7F886
:100F70001C310223C7F820310423C7F8243102238F
:100F8000C7F828310823C7F82C310023C7F83031BF
:100F90000023C7F8343107F1EC03184602F024FFB0
:100FA0000346002B01D000F04BF83F23C7F8CC30AC
:100FB0000323C7F8D0300023C7F8D4300823C7F87C
:100FC000D8304023C7F8DC304023C7F8E0304FF476
:100FD0008063C7F8E4304023C7F8E83007F1CC035A
:100FE0000421184603F05AFB0346002B01D000F001
:100FF00027F807F59C73A3F598714FF480224FF002
:101000000003C1E9002307F59C73A3F598734FF41F
:101010004012C3F8882007F10803184603F0CAFEFF
:101020000346002B01D000F00BF802F0CDFE00BF0C
:1010300007F59C77BD4680BD004802580004005863
:1010400080B400AF72B600BF00BFFDE780B58AB0C4
:1010500000AFF8600B467A607B8107F11403002231
:101060001A605A609A60DA601A617B897B61022398
:10107000BB610123FB6103233B627B687B6207F159
:1010800014031946F86801F0A5F900BF2837BD46DA
:1010900080BD000080B483B000AF0A4BD3F8F430B9
:1010A000084A43F00203C2F8F430064BD3F8F43098
:1010B00003F002037B607B6800BF0C37BD465DF820
:1010C000047B70470044025880B5BAB000AF786026
:1010D00007F12803C022002118460CF0ABFA7B6808
:1010E0001B68894A93423FD14FF001024FF0000341
:1010F000C7E90A230023C7F8A43007F128031846DC
:1011000003F058FE0346002B01D0FFF799FF7F4BF9
:10111000D3F8F0307D4A43F01003C2F8F0307B4B37
:10112000D3F8F03003F010037B627B6A774BD3F87F
:10113000E030764A43F00103C2F8E030734BD3F855
:10114000E03003F001033B623B6A07224FF4C061C9
:101150006F48FFF77BFF00220521252000F0A1FB4F
:10116000252000F0B8FBCBE07B681B68694A9342FE
:101170003ED14FF002024FF00003C7E90A230023DB
:10118000C7F8A03007F12803184603F013FE034602
:10119000002B01D0FFF754FF5C4BD3F8E8305B4ADB
:1011A00043F40033C2F8E830584BD3F8E83003F486
:1011B0000033FB61FB69554BD3F8E030534A43F0F1
:1011C0000803C2F8E030514BD3F8E03003F00803D5
:1011D000BB61BB69072260214F48FFF737FF002240
:1011E0000521262000F05DFB262000F074FB87E03F
:1011F0007B681B68494A93423FD14FF002024FF08F
:101200000003C7E90A230023C7F8A03007F1280329
:10121000184603F0CFFD0346002B01D0FFF710FF67
:101220003A4BD3F8E830394A43F48023C2F8E83027
:10123000364BD3F8E83003F480237B617B69334B72
:10124000D3F8E030314A43F00803C2F8E0302F4BC6
:10125000D3F8E03003F008033B613B6907224FF409
:1012600040712D48FFF7F2FE00220521272000F0F3
:1012700018FB272000F02FFB42E07B681B68284A00
:1012800093423DD14FF001024FF00003C7E90A231A
:101290000023C7F8A43007F12803184603F08AFD9D
:1012A0000346002B01D0FFF7CBFE184BD3F8F030EC
:1012B000164A43F02003C2F8F030144BD3F8F03054
:1012C00003F02003FB60FB68104BD3F8E0300F4ABB
:1012D00043F00403C2F8E0300C4BD3F8E03003F0E5
:1012E0000403BB60BB680722C0210E48FFF7AEFEB7
:1012F00000220521472000F0D4FA472000F0EBFA45
:1013000000BFE837BD4680BD0010014000440258D0
:101310000000025800440040000C02580048004001
:10132000001401400008025880B400AF00BFFDE780
:1013300080B400AF00BFFDE780B400AF00BFFDE7A1
:1013400080B400AF00BFFDE780B400AF00BFFDE791
:1013500080B400AF00BFBD465DF8047B704780B429
:1013600000AF00BFBD465DF8047B704780B400AF9E
:1013700000BFBD465DF8047B704780B500AF00F04C
:1013800065F900BF80BD000080B500AF024801F0E4
:1013900067FB00BF80BD00BF5819002480B500AFB7
:1013A000024805F0CFFB00BF80BD00BF1002002443
:1013B00080B500AF024805F0C5FB00BF80BD00BF8F
:1013C000A402002480B500AF024805F0BBFB00BFBB
:1013D00080BD00BF3803002480B500AF024805F08F
:1013E000B1FB00BF80BD00BFCC03002480B586B038
:1013F00000AF7860144A154BD31A7B617B693B615F
:10140000134B1B68002B02D1114B124A1A60104B70
:101410001A687B6813443A699A4207D20CF012F9B1
:1014200003460C221A604FF0FF3309E0084B1B689B
:10143000FB60074B1A687B681344054A1360FB681E
:1014400018461837BD4680BD00000824000400007F
:1014500070040024A821002480B400AF374BD3F8D7
:101460008830364A43F47003C2F88830344B1B6826
:1014700003F00F03062B07D8314B1B6823F00F0333
:101480002F4A43F0070313602E4B1B682D4A43F08D
:10149000010313602B4B00221A612A4B1A68294959
:1014A000294B13400B60264B1B6803F00803002BED
:1014B00007D0234B1B6823F00F03214A43F0070397
:1014C0001360204B00229A611E4B0022DA611D4BF3
:1014D00000221A621B4B1D4A9A621A4B1C4ADA629E
:1014E000184B1C4A1A63174B00225A63154B194AB2
:1014F0009A63144B0022DA63124B164A1A64114B9A
:1015000000225A640F4B1B680E4A23F48023136099
:101510000C4B00221A66104B1A68104B1340B3F1A3
:10152000005F02D20E4B01221A600E4B43F2D20230
:101530001A6000BFBD465DF8047B704700ED00E017
:1015400000200052004402587FEDF6EA0002020239
:101550000000FF01800201010010005C0000FFFF9D
:10156000088100510040005280B582B000AF0320D6
:1015700000F08CF903F048FA0246154B9B691B0AF0
:1015800003F00F031349CB5C03F01F0322FA03F3AC
:101590007B600F4B9B6903F00F030E4AD35C03F093
:1015A0001F037A6822FA03F30B4A13600B4A7B6825
:1015B00013600F2000F014F80346002B01D0012324
:1015C00002E0FFF767FD002318460837BD4680BDDF
:1015D0000044025828E30008A4000024A0000024CE
:1015E00080B582B000AF7860154B1B78002B01D11D
:1015F000012321E0134B1A68114B1B7819464FF455
:101600007A73B3FBF1F3B2FBF3F3184600F071F910
:101610000346002B01D001230EE07B680F2B0AD874
:10162000002279684FF0FF3000F03BF9064A7B68F2
:101630001360002300E0012318460837BD4680BD33
:10164000AC000024A0000024A800002480B400AF57
:10165000064B1B781A46064B1B681344044A13605A
:1016600000BFBD465DF8047B704700BFAC0000249E
:101670007404002480B400AF034B1B681846BD46B9
:101680005DF8047B704700BF7404002480B584B00B
:1016900000AF7860FFF7EEFFB8607B68FB60FB6827
:1016A000B3F1FF3F05D00A4B1B781A46FB68134481
:1016B000FB6000BFFFF7DEFF0246BB68D31AFA6883
:1016C0009A42F7D800BF00BF1037BD4680BD00BFAB
:1016D000AC00002480B400AF034B1B681B0C184601
:1016E000BD465DF8047B70470010005C80B485B097
:1016F00000AF78607B6803F00703FB600B4BDB688F
:10170000BB60BA684FF6FF031340BB60FB681A0268
:10171000BB681A43064B1343BB60044ABB68D360E3
:1017200000BF1437BD465DF8047B704700ED00E054
:101730000000FA0580B400AF044BDB681B0A03F01D
:1017400007031846BD465DF8047B704700ED00E0D6
:1017500080B483B000AF0346FB80B7F90630002B9E
:101760000BDBFB8803F01F020749B7F906305B0962
:10177000012000FA02F241F8232000BF0C37BD46D9
:101780005DF8047B704700BF00E100E080B483B0E7
:1017900000AF03463960FB80B7F90630002B0ADB47
:1017A0003B68DAB20C49B7F906301201D2B20B44E9
:1017B00083F800230AE03B68DAB20849FB8803F0AB
:1017C0000F03043B1201D2B20B441A7600BF0C3750
:1017D000BD465DF8047B704700E100E000ED00E0ED
:1017E00080B489B000AFF860B9607A60FB6803F03C
:1017F0000703FB61FB69C3F10703042B28BF042324
:10180000BB61FB690433062B02D9FB69033B00E093
:1018100000237B614FF0FF32BB6902FA03F3DA4326
:10182000BB681A407B699A404FF0FF317B6901FA2F
:1018300003F3D9437B680B40134318462437BD4656
:101840005DF8047B7047000080B582B000AF78601F
:101850007B68013BB3F1807F01D301230FE00A4A8B
:101860007B68013B53600F214FF0FF30FFF78EFF85
:10187000054B00229A60044B07221A600023184689
:101880000837BD4680BD00BF10E000E080B582B0E3
:1018900000AF78607868FFF729FF00BF0837BD46C2
:1018A00080BD80B586B000AF0346B9607A60FB8129
:1018B000FFF740FF78617A68B9687869FFF790FFB1
:1018C0000246B7F90E3011461846FFF75FFF00BF1A
:1018D0001837BD4680BD80B582B000AF0346FB809F
:1018E000B7F906301846FFF733FF00BF0837BD468B
:1018F00080BD80B582B000AF78607868FFF7A4FF44
:10190000034618460837BD4680BD000080B586B046
:1019100000AF7860FFF7AEFE38617B68002B01D125
:101920000123DCE27B6893F83530DBB2022B08D070
:101930007B6880225A657B68002283F8342001236B
:10194000CDE27B681B68644A93424AD07B681B687F
:10195000624A934245D07B681B68614A934240D0FB
:101960007B681B685F4A93423BD07B681B685E4A7A
:10197000934236D07B681B685C4A934231D07B68C7
:101980001B685B4A93422CD07B681B68594A934280
:1019900027D07B681B68584A934222D07B681B681B
:1019A000564A93421DD07B681B68554A934218D013
:1019B0007B681B68534A934213D07B681B68524A6A
:1019C00093420ED07B681B68504A934209D07B68D3
:1019D0001B684F4A934204D07B681B684D4A934270
:1019E00008D17B681B681A687B681B6822F00102BB
:1019F0001A6007E07B681B681A687B681B6822F026
:101A000001021A607B681B68334A93424AD07B68A4
:101A10001B68324A934245D07B681B68304A934228
:101A200040D07B681B682F4A93423BD07B681B6881
:101A30002D4A934236D07B681B682C4A934231D0A2
:101A40007B681B682A4A93422CD07B681B68294A12
:101A5000934227D07B681B68274A934222D07B6839
:101A60001B68264A93421DD07B681B68244A934218
:101A700018D07B681B68234A934213D07B681B688D
:101A8000214A93420ED07B681B68204A934209D0BA
:101A90007B681B681E4A934204D07B681B681D4A02
:101AA000934201D1012300E00023002B34D07B6856
:101AB0001B681A687B681B6822F01E021A607B682C
:101AC0001B685A697B681B6822F080025A617B6838
:101AD0001B687B612BE000BF100002402800024021
:101AE000400002405800024070000240880002405E
:101AF000A0000240B8000240100402402804024046
:101B0000400402405804024070040240880402402D
:101B1000A0040240B80402407B681B681A687B6816
:101B20001B6822F00E021A607B681B687B617B6871
:101B30001B687F4A934272D07B681B687D4A934240
:101B40006DD07B681B687C4A934268D07B681B68B9
:101B50007A4A934263D07B681B68794A93425ED08D
:101B60007B681B68774A934259D07B681B68764A2A
:101B7000934254D07B681B68744A93424FD07B6871
:101B80001B68734A93424AD07B681B68714A934230
:101B900045D07B681B68704A934240D07B681B68C5
:101BA0006E4A93423BD07B681B686D4A934236D0A5
:101BB0007B681B686B4A934231D07B681B686A4A1A
:101BC00093422CD07B681B68684A934227D07B687D
:101BD0001B68674A934222D07B681B68654A934220
:101BE0001DD07B681B68644A934218D07B681B68D1
:101BF000624A934213D07B681B68614A93420ED0BD
:101C00007B681B685F4A934209D07B681B685E4A09
:101C1000934204D07B681B685C4A934201D1012344
:101C200000E00023002B1CD07B681B6E1A687B68C9
:101C30001B6E22F480721A6013E0FFF71BFD024650
:101C40003B69D31A052B0CD97B6820225A657B6827
:101C5000032283F835207B68002283F83420012397
:101C60003DE17B691B6803F00103002BE5D17B6834
:101C70001B682F4A93424AD07B681B682D4A9342C7
:101C800045D07B681B682C4A934240D07B681B6818
:101C90002A4A93423BD07B681B68294A934236D03C
:101CA0007B681B68274A934231D07B681B68264AB1
:101CB00093422CD07B681B68244A934227D07B68D0
:101CC0001B68234A934222D07B681B68214A9342B7
:101CD0001DD07B681B68204A934218D07B681B6824
:101CE0001E4A934213D07B681B681D4A93420ED054
:101CF0007B681B681B4A934209D07B681B681A4AA1
:101D0000934204D07B681B68184A934201D1012397
:101D100000E00023002B3BD07B689B6DBB607B68A1
:101D2000DB6D03F01F033F229A40BB689A603AE0E4
:101D300010000240280002404000024058000240CB
:101D40007000024088000240A0000240B80002403B
:101D5000100402402804024040040240580402409B
:101D60007004024088040240A0040240B80402400B
:101D7000085402581C540258305402584454025813
:101D8000585402586C5402588054025894540258C3
:101D90007B689B6DFB607B68DB6D03F01F0301229A
:101DA0009A40FB685A607B681B684F4A934272D026
:101DB0007B681B684D4A93426DD07B681B684C4A18
:101DC000934268D07B681B684A4A934263D07B6821
:101DD0001B68494A93425ED07B681B68474A93421E
:101DE00059D07B681B68464A934254D07B681B6875
:101DF000444A93424FD07B681B68434A93424AD07F
:101E00007B681B68414A934245D07B681B68404A07
:101E1000934240D07B681B683E4A93423BD07B682C
:101E20001B683D4A934236D07B681B683B4A93420D
:101E300031D07B681B683A4A93422CD07B681B6880
:101E4000384A934227D07B681B68374A934222D096
:101E50007B681B68354A93421DD07B681B68344AF7
:101E6000934218D07B681B68324A934213D07B6838
:101E70001B68314A93420ED07B681B682F4A9342FD
:101E800009D07B681B682E4A934204D07B681B688C
:101E90002C4A934201D1012300E00023002B15D0EE
:101EA0007B685B6E7A68926E5A607B68DB6E002B93
:101EB0000CD07B68DB6E1A687B68DB6E22F4807264
:101EC0001A607B681B6F7A68526F5A607B680122C8
:101ED00083F835207B68002283F8342000231846DD
:101EE0001837BD4680BD00BF1000024028000240E8
:101EF000400002405800024070000240880002404A
:101F0000A0000240B8000240100402402804024031
:101F10004004024058040240700402408804024019
:101F2000A0040240B8040240085402581C5402584D
:101F30003054025844540258585402586C540258B1
:101F4000805402589454025880B584B000AF786031
:101F50007B68002B01D1012337E27B6893F8353091
:101F6000DBB2022B04D07B6880225A6501232CE26D
:101F70007B681B685C4A93424AD07B681B685B4A5B
:101F8000934245D07B681B68594A934240D07B6896
:101F90001B68584A93423BD07B681B68564A934261
:101FA00036D07B681B68554A934231D07B681B68EA
:101FB000534A93422CD07B681B68524A934227D0E5
:101FC0007B681B68504A934222D07B681B684F4A4B
:101FD00093421DD07B681B684D4A934218D07B68A2
:101FE0001B684C4A934213D07B681B684A4A934251
:101FF0000ED07B681B68494A934209D07B681B68F6
:10200000474A934204D07B681B68464A934201D1F9
:10201000012300E00023002B00F086807B6804226F
:1020200083F835207B681B682F4A93424AD07B682F
:102030001B682E4A934245D07B681B682C4A93420A
:1020400040D07B681B682B4A93423BD07B681B685F
:10205000294A934236D07B681B68284A934231D084
:102060007B681B68264A93422CD07B681B68254AF4
:10207000934227D07B681B68234A934222D07B6817
:102080001B68224A93421DD07B681B68204A9342FA
:1020900018D07B681B681F4A934213D07B681B686B
:1020A0001D4A93420ED07B681B681C4A934209D09C
:1020B0007B681B681A4A934204D07B681B68194AE4
:1020C000934208D17B681B681A687B681B6822F002
:1020D00001021A6078E17B681B681A687B681B68DC
:1020E00022F001021A606FE1100002402800024055
:1020F0004000024058000240700002408800024048
:10210000A0000240B800024010040240280402402F
:102110004004024058040240700402408804024017
:10212000A0040240B80402407B681B68704A9342D6
:102130004AD07B681B686F4A934245D07B681B6816
:102140006D4A934240D07B681B686C4A93423BD0F7
:102150007B681B686A4A934236D07B681B68694A71
:10216000934231D07B681B68674A93422CD07B68CE
:102170001B68664A934227D07B681B68644A934277
:1021800022D07B681B68634A93421DD07B681B6822
:10219000614A934218D07B681B68604A934213D00F
:1021A0007B681B685E4A93420ED07B681B685D4A61
:1021B000934209D07B681B685B4A934204D07B68DA
:1021C0001B685A4A934208D17B681B681A687B686F
:1021D0001B6822F001021A6007E07B681B681A681E
:1021E0007B681B6822F001021A607B681B681A6812
:1021F0007B681B6822F00E021A607B681B683C4AF1
:10220000934272D07B681B683A4A93426DD07B68D8
:102210001B68394A934268D07B681B68374A9342EF
:1022200063D07B681B68364A93425ED07B681B682C
:10223000344A934259D07B681B68334A934254D046
:102240007B681B68314A93424FD07B681B68304AD9
:1022500093424AD07B681B682E4A934245D07B68E4
:102260001B682D4A934240D07B681B682B4A9342DF
:102270003BD07B681B682A4A934236D07B681B6838
:10228000284A934231D07B681B68274A93422CD05E
:102290007B681B68254A934227D07B681B68244AC9
:1022A000934222D07B681B68224A93421DD07B68F0
:1022B0001B68214A934218D07B681B681F4A9342CF
:1022C00013D07B681B681E4A93420ED07B681B6844
:1022D0001C4A934209D07B681B681B4A934204D076
:1022E0007B681B68194A934232D1012331E000BF59
:1022F0001000024028000240400002405800024006
:102300007000024088000240A0000240B800024075
:1023100010040240280402404004024058040240D5
:102320007004024088040240A0040240B804024045
:10233000085402581C54025830540258445402584D
:10234000585402586C5402588054025894540258FD
:102350000023002B28D07B681B6E1A687B681B6EDD
:1023600022F480721A607B689B6DFB607B68DB6D7A
:1023700003F01F0301229A40FB685A607B685B6E82
:102380007A68926E5A607B68DB6E002B0CD07B689B
:10239000DB6E1A687B68DB6E22F480721A607B68E1
:1023A0001B6F7A68526F5A607B68012283F8352070
:1023B0007B68002283F834207B681B6D002B03D0E0
:1023C0007B681B6D78689847002318461037BD4618
:1023D00080BD00BF80B489B000AF78603960002351
:1023E000FB618E4B7B619EE13B681A680121FB69B2
:1023F00001FA03F313403B613B69002B00F090812D
:102400003B685B6803F00303012B05D03B685B6806
:1024100003F00303022B30D17B689B68BB61FB692F
:102420005B00032202FA03F3DB43BA691340BB618A
:102430003B68DA68FB695B0002FA03F3BA6913438D
:10244000BB617B68BA699A607B685B68BB6101228B
:10245000FB6902FA03F3DB43BA691340BB613B68D3
:102460005B681B0903F00102FB6902FA03F3BA6916
:102470001343BB617B68BA695A603B685B6803F0D1
:102480000303032B09D13B685B6803F00303032BB1
:102490001BD13B689B68012B17D07B68DB68BB6155
:1024A000FB695B00032202FA03F3DB43BA691340C2
:1024B000BB613B689A68FB695B0002FA03F3BA6987
:1024C0001343BB617B68BA69DA603B685B6803F001
:1024D0000303022B23D1FB69DA087B68083253F827
:1024E0002230BB61FB6903F007039B000F2202FA55
:1024F00003F3DB43BA691340BB613B681A69FB69AC
:1025000003F007039B0002FA03F3BA691343BB61AC
:10251000FB69DA087B680832B96943F822107B68E6
:102520001B68BB61FB695B00032202FA03F3DB4318
:10253000BA691340BB613B685B6803F00302FB6947
:102540005B0002FA03F3BA691343BB617B68BA69A3
:102550001A603B685B6803F44033002B00F0E080B6
:102560002F4BD3F8F4302E4A43F00203C2F8F43074
:102570002B4BD3F8F43003F00203FB60FB68294ACD
:10258000FB699B08023352F82330BB61FB6903F0FF
:1025900003039B000F2202FA03F3DB43BA691340E3
:1025A000BB617B68204A934252D07B681F4A9342AA
:1025B00031D07B681E4A93422BD07B681D4A9342E0
:1025C00025D07B681C4A93421FD07B681B4A9342EC
:1025D00019D07B681A4A934213D07B68194A9342F8
:1025E0000DD07B68184A934207D07B68174A934204
:1025F00001D109232DE00A232BE0082329E007233A
:1026000027E0062325E0052323E0042321E003231C
:102610001FE002231DE001231BE000BF80000058E3
:1026200000440258000400580000025800040258F8
:1026300000080258000C02580010025800140258FA
:1026400000180258001C02580020025800240258AA
:102650000023FA6902F0030292009340BA6913431F
:10266000BB613849FB699B080233BA6941F82320F2
:102670004FF0B0431B68BB613B69DB43BA69134051
:10268000BB613B685B6803F48013002B03D0BA691D
:102690003B691343BB614FF0B042BB6913604FF01D
:1026A000B0435B68BB613B69DB43BA691340BB6104
:1026B0003B685B6803F40013002B03D0BA693B69E5
:1026C0001343BB614FF0B042BB6953607B695B68E9
:1026D000BB613B69DB43BA691340BB613B685B6824
:1026E00003F40033002B03D0BA693B691343BB6189
:1026F0007B69BA695A607B691B68BB613B69DB43D4
:10270000BA691340BB613B685B6803F48033002BFC
:1027100003D0BA693B691343BB617B69BA691A602C
:10272000FB690133FB613B681A68FB6922FA03F31A
:10273000002B7FF459AE00BF00BF2437BD465DF8C3
:10274000047B70470004005880B485B000AF786007
:102750000B467B807B681A697B881340002B02D074
:102760000123FB7301E00023FB73FB7B1846143746
:10277000BD465DF8047B704780B483B000AF7860DD
:102780000B467B8013467B707B78002B03D07A88C6
:102790007B689A6103E07B881A047B689A6100BFBA
:1027A0000C37BD465DF8047B704780B485B000AF40
:1027B00078600B467B807B685B69FB607A88FB688E
:1027C00013401A04FB68D9437B880B401A437B688B
:1027D0009A6100BF1437BD465DF8047B704780B531
:1027E00086B002AF78607B68002B01D10123FEE048
:1027F0007B6893F89534DBB2002B06D17B6800220E
:1028000083F8942478680AF06BFB7B68032283F8D2
:1028100095247B681B68184606F0D1FD7B68186814
:102820007B681A7C8DF8002004330ECB06F09CFCEC
:102830000346002B05D07B68022283F895240123F0
:10284000D5E07B681B680021184606F0C9FD0346E9
:10285000002B05D07B68022283F895240123C6E073
:102860000023FB734AE0FA7B79681346DB001344CC
:102870009B000B44153301221A70FA7B79681346CA
:10288000DB0013449B000B441433FA7B1A70FA7B71
:10289000FB7B98B279681346DB0013449B000B4422
:1028A0002E3302461A80FA7B79681346DB00134404
:1028B0009B000B44183300221A70FA7B7968134688
:1028C000DB0013449B000B441C3300221A60FA7B8C
:1028D00079681346DB0013449B000B44203300222D
:1028E0001A60FA7B79681346DB0013449B000B44A3
:1028F000243300221A60FB7B0133FB737B681B7956
:10290000FA7B9A42AFD30023FB7344E0FA7B7968E9
:102910001346DB0013449B000B4403F255230022B3
:102920001A70FA7B79681346DB0013449B000B4452
:1029300003F51573FA7B1A70FA7B79681346DB008E
:1029400013449B000B4403F5167300221A70FA7BA4
:1029500079681346DB0013449B000B4403F517739F
:1029600000221A60FA7B79681346DB0013449B004F
:102970000B4403F5187300221A60FA7B796813463A
:10298000DB0013449B000B4403F5197300221A600B
:10299000FB7B0133FB737B681B79FA7B9A42B5D3CF
:1029A0007B6818687B681A7C8DF8002004330ECB96
:1029B00006F062FD0346002B05D07B68022283F8F7
:1029C0009524012313E07B6800225A747B6801225E
:1029D00083F895247B681B7B012B02D1786801F07A
:1029E00089F97B681B68184607F0F8FD0023184634
:1029F0001037BD4680BD80B584B000AF78607B687D
:102A00001B68FB607B6893F89434012B01D102238F
:102A100022E07B68012283F89424FB68DB6803F0E2
:102A20004003002B09D07B685B7B012B05D1FB6841
:102A30009B6B43F48032FB689A637B681B68184683
:102A400006F0ACFC7B681B68184607F0A6FD7B68A7
:102A5000002283F89424002318461037BD4680BD19
:102A600090B58DB000AF78607B681B683B623B6AB5
:102A7000FB617B681B68184607F064FE0346002B69
:102A800040F0D3847B681B68184607F0C8FD0346F6
:102A9000002B00F0C984FB6903F500639B681B0AE7
:102AA000C3F30D027B68C3F8D4247B681B68184607
:102AB00007F0B5FD034603F00203022B07D17B6844
:102AC0001B685A697B681B6802F002025A617B68C6
:102AD0001B68184607F0A3FD034603F01003102BF4
:102AE00061D17B681B689A697B681B6822F01002C1
:102AF0009A613B6A1B6ABB61BB6903F00F02134614
:102B0000DB0013449B0003F514737A681344043309
:102B10007B61BB6903F4F013B3F5802F24D1BA694C
:102B200047F6F0731340002B35D07B69D968BB6939
:102B30001B099BB2C3F30A039BB21A46386A07F01B
:102B4000AEFC7B69DA68BB691B09C3F30A031A444C
:102B50007B69DA607B695A69BB691B09C3F30A03A5
:102B60001A447B695A6116E0BB6903F4F013B3F5AC
:102B7000402F10D17B6803F29C4308221946386A23
:102B800007F08DFC7B695A69BB691B09C3F30A0313
:102B90001A447B695A617B681B689A697B681B6869
:102BA00042F010029A617B681B68184607F037FDF7
:102BB000034603F40023B3F5002F40F0A780002361
:102BC0007B627B681B68184607F03CFDB86299E0A1
:102BD000BB6A03F00103002B00F08E807B681B684A
:102BE0007A6AD2B21146184607F060FD38613B6937
:102BF00003F00103002B0CD07B6A5A01FB691344DC
:102C000003F530631A4601239360796A786800F00F
:102C1000EBFE3B6903F00803002B0CD07B6A5A01E2
:102C2000FB69134403F530631A4608239360796AFD
:102C3000786800F0C1FF3B6903F01003002B08D057
:102C40007B6A5A01FB69134403F530631A4610236B
:102C500093603B6903F00203002B30D03B6A5B6951
:102C600003F08003802B09D1FB6903F500635B68E7
:102C7000FA6902F5006243F4806353607A6A13468E
:102C8000DB0013449B0003F514737A681344043388
:102C90007B617B69DB78012B08D17B690022DA70CC
:102CA0007B6ADBB2194678680AF040FA7B6A5A01FF
:102CB000FB69134403F530631A46022393603B69B2
:102CC00003F02003002B08D07B6A5A01FB691344F0
:102CD00003F530631A46202393603B6903F40053E5
:102CE000002B09D07B6A5A01FB69134403F530635A
:102CF0001A464FF4005393607B6A01337B62BB6AD0
:102D00005B08BB62BB6A002B7FF462AF7B681B6809
:102D1000184607F084FC034603F48023B3F5802FA4
:102D200040F0DB807B681B68184607F0A5FCB862A2
:102D300000237B62CDE0BB6A03F00103002B00F0AF
:102D4000C2807B681B687A6AD2B21146184607F0C7
:102D5000CBFC38613B6903F00103002B57D07B6A41
:102D600003F00F03012202FA03F3FB60FB6903F592
:102D700000635A6BFB68DB43F96901F5006113409E
:102D80004B637B6A5A01FB69134403F510631A46CF
:102D9000012393607B689B79012B32D179687A6A31
:102DA0001346DB0013449B000B44203319687868FA
:102DB0007A6A1346DB0013449B0003441C331B68F0
:102DC000194478687A6A1346DB0013449B00034475
:102DD000203319607B6A002B13D179687A6A134615
:102DE000DB0013449B000B4424331B68002B08D1E9
:102DF0007B6818687B6803F29C431A46012107F040
:102E0000D3FC7B6ADBB2194678680AF00AF93B69A1
:102E100003F00803002B08D07B6A5A01FB691344B6
:102E200003F510631A46082393603B6903F010030F
:102E3000002B08D07B6A5A01FB69134403F5106329
:102E40001A46102393603B6903F04003002B08D01F
:102E50007B6A5A01FB69134403F510631A46402349
:102E600093603B6903F00203002B23D0796A386A30
:102E700006F060FC7A6A1346DB0013449B001033B3
:102E80007A68134404337B617B69DB78012B08D1BA
:102E90007B690022DA707B6ADBB2194678680AF037
:102EA00057F97B6A5A01FB69134403F510631A460C
:102EB000022393603B6903F08003002B03D0796AFF
:102EC000786800F004FD7B6A01337B62BB6A5B08B3
:102ED000BB62BB6A002B7FF42EAF7B681B68184671
:102EE00007F09DFB034603F00043B3F1004F22D1EE
:102EF000FB6903F500635B68FA6902F5006223F081
:102F0000010353607B6893F8CC34012B08D17B68B4
:102F1000002283F8CC240021786800F00FFF02E043
:102F200078680AF0F5F87B681B685A697B681B684B
:102F300002F000425A617B681B68184607F06FFB7D
:102F4000034603F40063B3F5006F12D1FB6903F588
:102F500000639B6803F00103012B02D178680AF03B
:102F6000B1F87B681B685A697B681B6802F40062D1
:102F70005A617B681B68184607F051FB034603F053
:102F80000063B3F1006F21D17B681B685A697B68CD
:102F90001B6802F000625A617B6893F8CC34002B06
:102FA00011D17B68012283F8CC247B681B685B6DA0
:102FB0009B0803F00F027B68C3F8D02401217868D6
:102FC00000F0BCFE02E078680AF07CF87B681B68C1
:102FD000184607F024FB034603F48053B3F5805FE3
:102FE00040F0B780FB6903F500635B68FA6902F59E
:102FF000006223F0010353607B681B6810211846B0
:1030000006F098FB0023FB6246E0FB6A5A01FB696D
:10301000134403F510631A464FF67F339360FB6A3F
:103020005A01FB69134403F510631B68FA6A5101E6
:10303000FA690A4402F5106223F400131360FB6A74
:103040005A01FB69134403F530631A464FF67F3388
:103050009360FB6A5A01FB69134403F530631B68F4
:10306000FA6A5101FA690A4402F5306223F4001346
:103070001360FB6A5A01FB69134403F530631B6854
:10308000FA6A5101FA690A4402F5306243F00063BA
:103090001360FB6A0133FB627B681B791A46FB6A8B
:1030A0009342B2D3FB6903F50063DB69FA6902F569
:1030B000006243F00113D3617B68DB7B002B16D0E9
:1030C000FB6903F50063D3F88430FA6902F5006206
:1030D00043F00B03C2F88430FB6903F500635B6CBB
:1030E000FA6902F5006243F00B03536415E0FB69D3
:1030F00003F500635A69FB6903F50063194642F260
:103100002B0313434B61FB6903F500631B69FA69E9
:1031100002F5006243F00B031361FB6903F50063E2
:103120001B68FA6902F5006223F4FE6313607B6892
:1031300018687B6899797B6803F29C431A4607F00C
:1031400033FB7B681B685A697B681B6802F48052FA
:103150005A617B681B68184607F061FA034603F45E
:103160000053B3F5005F23D17B681B68184607F056
:10317000F7FA7B681B68184606F055FB03461A46AB
:103180007B68DA717B681C6801F0B8FD01467B68DA
:10319000DB791A46204606F05FF8786809F069FF87
:1031A0007B681B685A697B681B6802F400525A618D
:1031B0007B681B68184607F032FA034603F00803E1
:1031C000082B0AD1786809F046FF7B681B685A69AA
:1031D0007B681B6802F008025A617B681B6818460E
:1031E00007F01DFA034603F08003802B3DD13B6AB4
:1031F0009B6923F080023B6A9A6101237B622EE087
:1032000079687A6A1346DB0013449B000B4403F28F
:1032100057231B78012B1FD17B6A5A01FB6913448A
:1032200003F530631B687A6A5101FA690A4402F5B2
:10323000306243F0006313607B6A5A01FB691344F8
:1032400003F530631B687A6A5101FA690A4402F592
:10325000306243F0804313607B6A01337B627B689A
:103260001B791A467B6A9342CAD37B681B6818464F
:1032700007F0D5F9034603F48013B3F5801F3CD162
:1032800001237B622BE07B6A5A01FB69134403F53F
:1032900010631B68BB6179687A6A1346DB001344CC
:1032A0009B000B4418331B78012B15D1BB69002BF5
:1032B00012DA79687A6A1346DB0013449B000B44E8
:1032C000173301221A707B6ADBB263F07F03DBB233
:1032D0001946786800F0CAFA7B6A01337B627B6822
:1032E0001B791A467B6A9342CDD37B681B685A6967
:1032F0007B681B6802F480125A617B681B68184661
:1033000007F08DF9034603F40013B3F5001F56D1FF
:1033100001237B6245E07B6A5A01FB69134403F594
:1033200030631B68BB6179687A6A1346DB0013441B
:103330009B000B4403F516731B78012B2ED1BB6940
:10334000002B2BDABB691A0C7B68D3F8D4345340BA
:1033500003F00103002B21D179687A6A1346DB0060
:1033600013449B000B4403F2572301221A703B6A5B
:103370009B6943F080023B6A9A613B6A5B6903F098
:103380008003002B0AD1FB6903F500635B68FA69CF
:1033900002F5006243F40073536008E07B6A013376
:1033A0007B627B681B791A467B6A9342B3D37B6846
:1033B0001B685A697B681B6802F400125A617B68BB
:1033C0001B68184607F02BF9034603F08043B3F15E
:1033D000804F0AD1786809F0CDFE7B681B685A6976
:1033E0007B681B6802F080425A617B681B68184644
:1033F00007F015F9034603F00403042B15D17B688D
:103400001B685B68BB61BB6903F00403002B02D03F
:10341000786809F0BDFE7B681B6859687B681B688B
:10342000BA690A435A6000E000BF3437BD4690BD18
:1034300080B582B000AF78600B46FB707B6893F874
:103440009434012B01D1022312E07B68012283F81E
:1034500094247B68FA785A747B681B68FA78114662
:10346000184607F074F87B68002283F89424002340
:1034700018460837BD4680BD80B584B000AF78607F
:10348000084611461A460346FB700B463B8013461E
:10349000BB700023FB7297F90330002B0FDAFB7827
:1034A00003F00F021346DB0013449B0010337A68CD
:1034B00013440433FB60FB6801225A700FE0FB7871
:1034C00003F00F021346DB0013449B0003F5147353
:1034D0007A6813440433FB60FB6800225A70FB785F
:1034E00003F00F03DAB2FB681A703B88C3F30A02D9
:1034F000FB689A60FB68BA781A71FB685B78002BEE
:1035000004D0FB681B781A46FB685A83BB78022BF1
:1035100002D1FB6800225A717B6893F89434012B26
:1035200001D102230EE07B68012283F894247B689A
:103530001B68F968184606F09BF97B68002283F83F
:103540009424FB7A18461037BD4680BD80B584B000
:1035500000AF78600B46FB7097F90330002B0FDA51
:10356000FB7803F00F021346DB0013449B0010337B
:103570007A6813440433FB60FB6801225A700FE041
:10358000FB7803F00F021346DB0013449B0003F5A6
:1035900014737A6813440433FB60FB6800225A708A
:1035A000FB7803F00F03DAB2FB681A707B6893F8BC
:1035B0009434012B01D102230EE07B68012283F8B1
:1035C00094247B681B68F968184606F0D9F97B6873
:1035D000002283F89424002318461037BD4680BD8E
:1035E00080B586B000AFF8607A603B600B46FB7236
:1035F000FB7A03F00F021346DB0013449B0003F534
:103600001473FA68134404337B617B697A68DA6067
:103610007B693A681A617B6900225A617B690022E2
:103620005A70FB7A03F00F03DAB27B691A70FB68F9
:103630009B79012B02D17A687B69DA61FB68186893
:10364000FB689B791A46796906F076FA00231846DA
:103650001837BD4680BD80B483B000AF78600B469C
:10366000FB70FB7803F00F0279681346DB0013440C
:103670009B000B4403F51A731B6818460C37BD46B4
:103680005DF8047B704780B586B000AFF8607A6063
:103690003B600B46FB72FB7A03F00F021346DB0024
:1036A00013449B001033FA68134404337B617B6935
:1036B0007A68DA607B693A681A617B6900225A612C
:1036C0007B6901225A70FB7A03F00F03DAB27B693F
:1036D0001A70FB689B79012B02D17A687B69DA61E9
:1036E000FB681868FB689B791A46796906F024FA2A
:1036F000002318461837BD4680BD80B584B000AFA2
:1037000078600B46FB70FB7803F00F037A68127940
:10371000934201D901234FE097F90330002B0FDAD0
:10372000FB7803F00F021346DB0013449B001033B9
:103730007A6813440433FB60FB6801225A700DE081
:10374000FA781346DB0013449B0003F514737A6880
:1037500013440433FB60FB6800225A70FB680122AB
:103760009A70FB7803F00F03DAB2FB681A707B687B
:1037700093F89434012B01D102231DE07B680122D0
:1037800083F894247B681B68F968184606F075FD79
:10379000FB7803F00F03002B09D17B6818687B6866
:1037A00099797B6803F29C431A4606F0FDFF7B681B
:1037B000002283F89424002318461037BD4680BDAC
:1037C00080B584B000AF78600B46FB70FB7803F0E7
:1037D0000F037A681279934201D9012342E097F9E5
:1037E0000330002B0FDAFB7803F00F021346DB00E7
:1037F00013449B0010337A6813440433FB60FB6866
:1038000001225A700FE0FB7803F00F021346DB0031
:1038100013449B0003F514737A6813440433FB606C
:10382000FB6800225A70FB6800229A70FB7803F054
:103830000F03DAB2FB681A707B6893F89434012B9B
:1038400001D102230EE07B68012283F894247B6877
:103850001B68F968184606F07EFD7B68002283F835
:103860009424002318461037BD4680BD80B584B02F
:1038700000AF78600B46FB7097F90330002B0CDA31
:10388000FB7803F00F021346DB0013449B00103358
:103890007A6813440433FB600CE0FB7803F00F02FA
:1038A0001346DB0013449B0003F514737A6813443A
:1038B0000433FB607B681B68F968184606F0E0FB80
:1038C0000346FB72FB7A18461037BD4680BD80B5B3
:1038D0008AB002AF786039607B681B687B617B6966
:1038E0003B613A681346DB0013449B0010337A684F
:1038F00013440433FB60FB685A69FB681B699A42F6
:1039000001D901236BE0FB681A69FB685B69D31A74
:10391000FB61FB689B68FA699A4202D9FB689B6865
:10392000FB61FB6903339B08BB612AE0FB681A69F2
:10393000FB685B69D31AFB61FB689B68FA699A4272
:1039400002D9FB689B68FB61FB6903339B08BB6181
:10395000FB68D9683B68DAB2FB6998B27B689B79EF
:1039600000930346786906F05CFDFB68DA68FB6942
:103970001A44FB68DA60FB685A69FB691A44FB6801
:103980005A613B685A013B69134403F510639B6914
:103990009BB2BA699A4209D8FB685A69FB681B69ED
:1039A0009A4203D2FB681B69002BBFD1FB681A69DE
:1039B000FB685B699A4211D83B6803F00F03012250
:1039C00002FA03F3BB603B6903F500635A6BBB6803
:1039D000DB43396901F5006113404B63002318464E
:1039E0002037BD4680BD000080B588B000AF78604C
:1039F00039607B681B68FB61FB69BB61FB693C3319
:103A000004331B687B613B685A01BB69134403F5AF
:103A100030639B683B617B689B79012B7BD13B6961
:103A200003F00803002B15D07B69614A934240F2F2
:103A3000B9803B6903F40043002B00F0B3803B687E
:103A40005A01BB69134403F530631A464FF400432F
:103A50009360A7E03B6903F02003002B09D03B688B
:103A60005A01BB69134403F530631A46202393605F
:103A700098E03B6903F02803002B40F093807B69BA
:103A80004B4A93420FD93B6903F40043002B0AD001
:103A90003B685A01BB69134403F530631A464FF47F
:103AA000004393607EE03A681346DB0013449B00BA
:103AB00003F514737A6813440433FB60FB681A6AD5
:103AC0003B685901BB690B4403F530631B69C3F3C1
:103AD0001203D21AFB685A613B68002B14D1FB68B1
:103AE0001B69002B09D17B6818687B6803F29C4333
:103AF0001A46012106F058FE06E0FB68DA68FB680A
:103B00005B691A44FB68DA603B68DBB21946786887
:103B100009F06CFA46E07B69264A934224D13B695E
:103B200003F40043002B0AD03B685A01BB691344DD
:103B300003F530631A464FF40043936032E03B696B
:103B400003F02003002B08D03B685A01BB691344E3
:103B500003F530631A46202393603B68DBB21946B5
:103B6000786809F043FA1DE03B68002B14D17968AE
:103B70003A681346DB0013449B000B4403F51973AA
:103B80001B68002B08D17B6818687B6803F29C4394
:103B90001A46002106F008FE3B68DBB21946786839
:103BA00009F024FA002318462037BD4680BD00BF27
:103BB0000A30544F0A31544F80B586B000AF786058
:103BC00039607B681B687B617B693B617B693C3347
:103BD00004331B68FB603B685A013B69134403F5DF
:103BE00030639B68BB60FB68154A93420ED9BB6883
:103BF00003F40043002B09D03B685A013B6913448E
:103C000003F530631A464FF400439360786809F077
:103C1000DBF9FB680A4A93420CD97B689B79012B3C
:103C200008D17B6818687B6803F29C431A4601211F
:103C300006F0BAFD002318461837BD4680BD00BF08
:103C40000A30544F80B485B000AF78600B46FB70EB
:103C500013463B807B681B685B6ABB60FB78002B6C
:103C600007D13B8819047B681B68BA680A439A62CB
:103C700028E07B681B689B6A1B0CBA681344BB6016
:103C80000023FB730DE07B681A68FB7B40339B00CD
:103C900013445B681B0CBA681344BB60FB7B0133A5
:103CA000FB73FA7BFB78013B9A42ECD33B88180408
:103CB0007B681968FB78013BBA68024340339B007C
:103CC0000B445A60002318461437BD465DF8047B48
:103CD000704780B483B000AF78600B467B807B6810
:103CE0001B687A885A62002318460C37BD465DF877
:103CF000047B704780B485B000AF78607B681B6838
:103D0000FB607B680122C3F8D8247B68002283F81B
:103D1000CC24FB689B6943F00062FB689A61FB68F6
:103D20005A6D054B1343FA68536500231846143740
:103D3000BD465DF8047B70470300001080B483B07B
:103D400000AF78600B46FB7000BF0C37BD465DF8D6
:103D5000047B704780B584B000AF7860194BDB6896
:103D600003F00403042B0AD0164BDB6803F00703AF
:103D70007A689A4201D001231FE000231DE0114B15
:103D8000DB6823F007020F497B681343CB60FDF724
:103D900071FCF86009E0FDF76DFC0246FB68D31A80
:103DA000B3F57A7F01D9012307E0064B5B6803F482
:103DB0000053B3F5005FEED1002318461037BD461F
:103DC00080BD00BF0048025880B400AF054BDB68DF
:103DD000044A43F08073D36000BFBD465DF8047BA6
:103DE000704700BF0048025880B58CB000AF7860C3
:103DF0007B68002B02D1012300F048BC7B681B6864
:103E000003F00103002B00F08880994B1B6903F03D
:103E10003803FB62964B9B6ABB62FB6A102B07D090
:103E2000FB6A182B11D1BB6A03F00303022B0CD1E0
:103E30008F4B1B6803F40033002B6DD07B685B68ED
:103E4000002B69D1012300F021BC7B685B68B3F5CE
:103E5000803F06D1864B1B68854A43F4803313604C
:103E60002EE07B685B68002B0CD1814B1B68804A7D
:103E700023F4803313607E4B1B687D4A23F4802338
:103E800013601DE07B685B68B3F5A02F0CD1784B05
:103E90001B68774A43F480231360754B1B68744A90
:103EA00043F4803313600BE0714B1B68704A23F4BA
:103EB000803313606E4B1B686D4A23F480231360BC
:103EC0007B685B68002B13D0FDF7D4FB786208E0B9
:103ED000FDF7D0FB02467B6AD31A642B01D903237A
:103EE000D4E3634B1B6803F40033002BF0D014E0E1
:103EF000FDF7C0FB786208E0FDF7BCFB02467B6A79
:103F0000D31A642B01D90323C0E3594B1B6803F474
:103F10000033002BF0D100E000BF7B681B6803F08A
:103F20000203002B00F0CA80514B1B6903F03803D9
:103F30003B624F4B9B6AFB613B6A002B07D03B6A9D
:103F4000182B56D1FB6903F00303002B51D1484BCA
:103F50001B6803F00403002B05D07B68DB68002B93
:103F600001D1012392E3424B1B6823F019027B68C5
:103F7000DB683F4913430B60FDF77CFB786208E088
:103F8000FDF778FB02467B6AD31A022B01D9032383
:103F90007CE3374B1B6803F00403002BF0D0FDF7E4
:103FA00099FB034641F20302934217D87B681B69D1
:103FB000402B08D12E4B5B6823F47C332C4A43F40E
:103FC000003353607AE02A4B5B6823F47C327B68D1
:103FD0001B691B03264913434B606FE0244B5B684E
:103FE00023F0FE427B681B691B06214913434B608B
:103FF00064E07B68DB68002B47D01D4B1B6823F017
:1040000019027B68DB681A4913430B60FDF732FB2A
:10401000786208E0FDF72EFB02467B6AD31A022B7A
:1040200001D9032332E3124B1B6803F00403002B76
:10403000F0D0FDF74FFB034641F20302934219D83B
:104040007B681B69402B08D1094B5B6823F47C33E8
:10405000074A43F40033536030E0054B5B6823F4B8
:104060007C327B681B691B03014913434B6025E0CD
:10407000004402589A4B5B6823F0FE427B681B6940
:104080001B06974913434B6018E0954B1B68944AF5
:1040900023F001031360FDF7EDFA786208E0FDF705
:1040A000E9FA02467B6AD31A022B01D90323EDE217
:1040B0008B4B1B6803F00403002BF0D17B681B685B
:1040C00003F01003002B00F0A980854B1B6903F05F
:1040D0003803BB61824B9B6A7B61BB69082B07D0AD
:1040E000BB69182B3AD17B6903F00303012B35D14F
:1040F0007B4B1B6803F48073002B05D07B68DB6966
:10410000802B01D00123C1E2FDF7E4FA034641F21E
:104110000302934217D87B681B6A202B08D1704B8F
:104120005B6823F0F8436E4A43F08043536075E0C8
:104130006B4B5B6823F0F8427B681B6A9B066849FF
:1041400013434B606AE0664BDB6823F07C527B686C
:104150001B6A1B0662491343CB605FE07B68DB6927
:10416000002B42D05E4B1B685D4A43F08003136016
:10417000FDF780FA786208E0FDF77CFA02467B6A78
:10418000D31A022B01D9032380E2554B1B6803F499
:104190008073002BF0D0FDF79DFA034641F2030235
:1041A000934217D87B681B6A202B08D14C4B5B6865
:1041B00023F0F8434A4A43F0804353602EE0484BD3
:1041C0005B6823F0F8427B681B6A9B0644491343F3
:1041D0004B6023E0424BDB6823F07C527B681B6A18
:1041E0001B063F491343CB6018E03D4B1B683C4A1C
:1041F00023F080031360FDF73DFA786208E0FDF7D5
:1042000039FA02467B6AD31A022B01D903233DE215
:10421000334B1B6803F48073002BF0D17B681B6861
:1042200003F00803002B36D07B685B69002B19D0A4
:104230002B4B5B6F2A4A43F001035367FDF71AFAD1
:10424000786208E0FDF716FA02467B6AD31A022B61
:1042500001D903231AE2224B5B6F03F00203002B08
:10426000F0D018E01E4B5B6F1D4A23F0010353672B
:10427000FDF700FA786208E0FDF7FCF902467B6A78
:10428000D31A022B01D9032300E2154B5B6F03F015
:104290000203002BF0D17B681B6803F02003002B86
:1042A00039D07B689B69002B1CD00D4B1B680C4AD6
:1042B00043F480531360FDF7DDF9786208E0FDF701
:1042C000D9F902467B6AD31A022B01D90323DDE117
:1042D000034B1B6803F40053002BF0D01BE000BF1E
:1042E000004402589B4B1B689A4A23F48053136086
:1042F000FDF7C0F9786208E0FDF7BCF902467B6A79
:10430000D31A022B01D90323C0E1924B1B6803F49B
:104310000053002BF0D17B681B6803F00403002BD3
:1043200000F081808C4B1B688B4A43F480731360D0
:10433000FDF7A0F9786208E0FDF79CF902467B6A78
:10434000D31A642B01D90323A0E1834B1B6803F428
:104350008073002BF0D07B689B68012B06D17D4BCE
:104360001B6F7C4A43F0010313672DE07B689B6859
:10437000002B0CD1774B1B6F764A23F00103136798
:10438000744B1B6F734A23F0040313671CE07B68B4
:104390009B68052B0CD16F4B1B6F6E4A43F00403D7
:1043A00013676C4B1B6F6B4A43F0010313670BE001
:1043B000684B1B6F674A23F001031367654B1B6F44
:1043C000644A23F0040313677B689B68002B15D0B5
:1043D000FDF750F978620AE0FDF74CF902467B6A76
:1043E000D31A41F28832934201D903234EE1594B4B
:1043F0001B6F03F00203002BEED014E0FDF73AF937
:1044000078620AE0FDF736F902467B6AD31A41F278
:104410008832934201D9032338E14E4B1B6F03F0DE
:104420000203002BEED17B685B6A002B00F02D812C
:10443000484B1B6903F03803182B00F0BD807B68E4
:104440005B6A022B40F09E80424B1B68414A23F07E
:1044500080731360FDF70EF9786208E0FDF70AF942
:1044600002467B6AD31A022B01D903230EE1394B92
:104470001B6803F00073002BF0D1364B9A6A374B60
:1044800013407A68916A7A68D26A12010A43314904
:1044900013438B627B681B6B013BC3F308027B6891
:1044A0005B6B013B5B029BB21A437B689B6B013BDE
:1044B0001B0403F4FE031A437B68DB6B013B1B0602
:1044C00003F0FE43234913430B63224BDB6A214A6B
:1044D00023F00103D3621F4B5A6B214B13407A68C0
:1044E000926CD2001B4913434B631A4BDB6A23F0D7
:1044F0000C027B681B6C17491343CB62154BDB6ABC
:1045000023F002027B685B6C12491343CB62114BB0
:10451000DB6A104A43F48033D3620E4BDB6A0D4AE8
:1045200043F40033D3620B4BDB6A0A4A43F4802323
:10453000D362084BDB6A074A43F00103D362054BA1
:104540001B68044A43F080731360FDF793F87862A8
:1045500011E000BF00440258004802580CFCFFFF65
:104560000700FFFFFDF786F802467B6AD31A022B8D
:1045700001D903238AE0474B1B6803F00073002B2B
:10458000F0D082E0434B1B68424A23F080731360F3
:10459000FDF770F8786208E0FDF76CF802467B6A78
:1045A000D31A022B01D9032370E03A4B1B6803F0A6
:1045B0000073002BF0D168E0364B9B6A3B61354BB2
:1045C0001B6BFB607B685B6A012B31D03B6903F09E
:1045D00003027B689B6A9A422AD13B691B0903F05C
:1045E0003F027B68DB6A9A4222D1FB68C3F3080270
:1045F0007B681B6B013B9A421AD1FB685B0A03F094
:104600007F027B685B6B013B9A4211D1FB681B0CFC
:1046100003F07F027B689B6B013B9A4208D1FB68E9
:104620001B0E03F07F027B68DB6B013B9A4201D0DB
:1046300001232BE0174B5B6BDB08C3F30C033B61DF
:104640007B689B6C3A699A421FD0124BDB6A114A15
:1046500023F00103D362FDF70DF8786200BFFDF788
:1046600009F802467B6A9342F9D00A4B5A6B0A4B0F
:1046700013407A68926CD200064913434B63054B92
:10468000DB6A044A43F00103D36200231846303743
:10469000BD4680BD004402580700FFFF80B586B0CC
:1046A00000AF786039607B68002B01D101239CE169
:1046B0008A4B1B6803F00F033A689A4210D9874B64
:1046C0001B6823F00F0285493B6813430B60834B43
:1046D0001B6803F00F033A689A4201D0012384E17A
:1046E0007B681B6803F00403002B10D07B681A69F9
:1046F0007B4B9B6903F070039A4208D9784B9B6906
:1047000023F070027B681B69754913438B617B68DA
:104710001B6803F00803002B10D07B685A69704BAC
:10472000DB6903F070039A4208D96D4BDB6923F013
:1047300070027B685B696A491343CB617B681B68C5
:1047400003F01003002B10D07B689A69644BDB697F
:1047500003F4E0639A4208D9614BDB6923F4E06219
:104760007B689B695E491343CB617B681B6803F0E0
:104770002003002B10D07B68DA69594B1B6A03F0C9
:1047800070039A4208D9564B1B6A23F070027B686B
:10479000DB69534913430B627B681B6803F0020318
:1047A000002B10D07B68DA684D4B9B6903F00F0338
:1047B0009A4208D94A4B9B6923F00F027B68DB6859
:1047C000474913438B617B681B6803F00103002B8F
:1047D00055D0434B9B6923F470627B689B684049CA
:1047E00013438B617B685B68022B07D13C4B1B68D2
:1047F00003F40033002B21D10123F6E07B685B68D2
:10480000032B07D1364B1B6803F00073002B15D127
:104810000123EAE07B685B68012B07D1304B1B6802
:1048200003F48073002B09D10123DEE02C4B1B68BD
:1048300003F00403002B01D10123D6E0284B1B69B0
:1048400023F007027B685B68254913430B61FCF783
:1048500011FF78610AE0FCF70DFF02467B69D31A6D
:1048600041F28832934201D90323BEE01C4B1B69FD
:1048700003F038027B685B68DB009A42EBD17B680F
:104880001B6803F00203002B10D07B68DA68144B1E
:104890009B6903F00F039A4208D2114B9B6923F0E6
:1048A0000F027B68DB680E4913438B610B4B1B685F
:1048B00003F00F033A689A4214D2084B1B6823F0A6
:1048C0000F0206493B6813430B60044B1B6803F05F
:1048D0000F033A689A4205D0012386E00020005277
:1048E000004402587B681B6803F00403002B10D0BF
:1048F0007B681A693F4B9B6903F070039A4208D2A8
:104900003C4B9B6923F070027B681B693949134358
:104910008B617B681B6803F00803002B10D07B6859
:104920005A69344BDB6903F070039A4208D2314B69
:10493000DB6923F070027B685B692E491343CB610E
:104940007B681B6803F01003002B10D07B689A690A
:10495000284BDB6903F4E0639A4208D2254BDB69FC
:1049600023F4E0627B689B6922491343CB617B6837
:104970001B6803F02003002B10D07B68DA691D4B05
:104980001B6A03F070039A4208D21A4B1B6A23F089
:1049900070027B68DB69174913430B6200F034F83F
:1049A0000246144B9B691B0A03F00F031249CB5CB0
:1049B00003F01F0322FA03F33B610E4B9B6903F0E4
:1049C0000F030D4AD35C03F01F033A6922FA03F385
:1049D0000A4A13600A4A3B6913600A4B1B6818466F
:1049E000FCF7FEFD0346FB73FB7B18461837BD46FC
:1049F00080BD00BF0044025828E30008A400002442
:104A0000A0000024A800002480B489B000AFB34BFC
:104A10001B6903F03803182B00F2558101A252F8EC
:104A200023F000BF894A0008C74C0008C74C0008A3
:104A3000C74C0008C74C0008C74C0008C74C00080A
:104A4000C74C0008AF4A0008C74C0008C74C000814
:104A5000C74C0008C74C0008C74C0008C74C0008EA
:104A6000C74C0008B54A0008C74C0008C74C0008EE
:104A7000C74C0008C74C0008C74C0008C74C0008CA
:104A8000C74C0008BB4A0008944B1B6803F0200386
:104A9000002B09D0914B1B68DB0803F00303904AFD
:104AA00022FA03F3BB6111E18D4BBB610EE18D4B2B
:104AB000BB610BE18C4BBB6108E1884B9B6A03F047
:104AC00003037B61854B9B6A1B0903F03F033B613A
:104AD000824BDB6A03F00103FB60804B5B6BDB08FE
:104AE000C3F30C03FA6802FB03F307EE903AF8EE07
:104AF000677AC7ED027A3B69002B00F0E1807B69A1
:104B0000022B00F083807B69022B00F2A1807B697D
:104B1000002B03D07B69012B56D099E06F4B1B68AB
:104B200003F02003002B2DD06C4B1B68DB0803F037
:104B300003036B4A22FA03F37B607B6807EE903A2B
:104B4000F8EE676A3B6907EE903AF8EE677A86EE10
:104B5000A77A624B1B6BC3F3080307EE903AF8EE9B
:104B6000676A97ED026ADFED615AC6EE257A76EE46
:104B7000A77AF7EE006A77EEA67A67EE277AC7ED96
:104B8000077A87E03B6907EE903AF8EE677ADFED47
:104B9000586A86EEA77A514B1B6BC3F3080307EEE6
:104BA000903AF8EE676A97ED026ADFED505AC6EE6A
:104BB000257A76EEA77AF7EE006A77EEA67A67EEA8
:104BC000277AC7ED077A65E03B6907EE903AF8EE81
:104BD000677ADFED486A86EEA77A404B1B6BC3F31A
:104BE000080307EE903AF8EE676A97ED026ADFED88
:104BF0003F5AC6EE257A76EEA77AF7EE006A77EE90
:104C0000A67A67EE277AC7ED077A43E03B6907EE9D
:104C1000903AF8EE677ADFED386A86EEA77A2F4B86
:104C20001B6BC3F3080307EE903AF8EE676A97ED43
:104C3000026ADFED2E5AC6EE257A76EEA77AF7EEF7
:104C4000006A77EEA67A67EE277AC7ED077A21E049
:104C50003B6907EE903AF8EE677ADFED266A86EE5A
:104C6000A77A1E4B1B6BC3F3080307EE903AF8EECE
:104C7000676A97ED026ADFED1D5AC6EE257A76EE79
:104C8000A77AF7EE006A77EEA67A67EE277AC7ED85
:104C9000077A00BF114B1B6B5B0A03F07F030133E4
:104CA0003B603B6807EE903AB8EE677AD7ED076A4B
:104CB000C6EE877AFCEEE77A17EE903ABB6105E024
:104CC0000023BB6102E0074BBB6100BFBB69184614
:104CD0002437BD465DF8047B704700BF004402588E
:104CE0000090D00300093D0040787D01000000469F
:104CF0000024744C0024744A20BCBE4B80B582B0A2
:104D000000AFFFF781FE0246104B9B691B0A03F0C0
:104D10000F030F49CB5C03F01F0322FA03F37B6000
:104D20000A4B9B6903F00F03094AD35C03F01F038E
:104D30007A6822FA03F3074A1360074A7B68136014
:104D4000044B1B6818460837BD4680BD0044025816
:104D500028E30008A4000024A000002480B500AFD0
:104D6000FFF7CCFF0246064BDB691B0903F0070384
:104D70000449CB5C03F01F0322FA03F3184680BDFD
:104D80000044025828E3000880B500AFFFF7B6FFE3
:104D90000246064BDB691B0A03F007030449CB5CA0
:104DA00003F01F0322FA03F3184680BD00440258A3
:104DB00028E300082DE9B04FCAB000AFC7F81401CE
:104DC000002387F82731002387F82631D7F81431DC
:104DD000D3E9002302F00064002554EA050349D01A
:104DE000D7F814319B6EB3F5401F2FD0B3F5401F99
:104DF00028D8B3F5001F1AD0B3F5001F22D8002B16
:104E000003D0B3F5801F07D01CE0B84BDB6AB74A6C
:104E100043F40033D3621AE0D7F814310833022187
:104E2000184601F08FFC034687F827310FE0D7F8CA
:104E3000143128330221184601F036FD034687F865
:104E4000273104E0012387F8273100E000BF97F8FD
:104E50002731002B0AD1A54B1B6D23F44011D7F845
:104E600014319B6EA14A0B43136503E097F8273179
:104E700087F82631D7F81431D3E9002302F480787B
:104E80004FF0000958EA090347D0D7F814319B6D59
:104E9000042B2AD801A252F823F000BFB14E00081B
:104EA000BF4E0008D54E0008F34E0008F34E000830
:104EB0008E4BDB6A8D4A43F40033D3621AE0D7F895
:104EC000143108330021184601F03CFC034687F8F2
:104ED00027310FE0D7F8143128330021184601F0AC
:104EE000E3FC034687F8273104E0012387F82731E4
:104EF00000E000BF97F82731002B0AD17B4B1B6DD8
:104F000023F00701D7F814319B6D784A0B431365E2
:104F100003E097F8273187F82631D7F81431D3E921
:104F2000002302F4007A4FF0000B5AEA0B034CD036
:104F3000D7F81431DB6DB3F5807F30D0B3F5807FC7
:104F400029D8C02B2DD0C02B25D8802B18D0802B52
:104F500021D8002B02D0402B07D01CE0634BDB6A2A
:104F6000624A43F40033D3621CE0D7F814310833AB
:104F70000021184601F0E6FB034687F8273111E0CF
:104F8000D7F8143128330021184601F08DFC034670
:104F900087F8273106E0012387F8273102E000BFB8
:104FA00000E000BF97F82731002B0AD14F4B1B6D53
:104FB00023F4E071D7F81431DB6D4C4A0B431365D1
:104FC00003E097F8273187F82631D7F81431D3E971
:104FD000002302F48063C7F808310023C7F80C31BE
:104FE000D7E942120B46134353D0D7F81431D3F804
:104FF000A830B3F5000F35D0B3F5000F2ED8B3F5B8
:10500000C00F31D0B3F5C00F28D8B3F5800F1AD038
:10501000B3F5800F22D8002B03D0B3F5001F07D0C3
:105020001CE0324BDB6A314A43F40033D3621CE0AC
:10503000D7F8143108330021184601F083FB0346EA
:1050400087F8273111E0D7F81431283300211846AA
:1050500001F02AFC034687F8273106E0012387F890
:10506000273102E000BF00E000BF97F82731002B96
:105070000BD11E4B9B6D23F46001D7F81431D3F88C
:10508000A8301A4A0B43936503E097F8273187F855
:105090002631D7F81431D3E9002302F40063C7F8AE
:1050A00000310023C7F80431D7E940120B461343FF
:1050B00056D0D7F81431D3F8AC30B3F1806F38D074
:1050C000B3F1806F31D8B3F1407F34D0B3F1407F7A
:1050D0002BD8B3F1007F1DD0B3F1007F25D8002B72
:1050E00006D0B3F1807F0AD01FE000BF0044025811
:1050F000A24BDB6AA14A43F40033D3621CE0D7F829
:10510000143108330021184601F01CFB034687F8D0
:10511000273111E0D7F8143128330021184601F067
:10512000C3FB034687F8273106E0012387F82731C0
:1051300002E000BF00E000BF97F82731002B0BD141
:105140008E4B9B6D23F0E061D7F81431D3F8AC306F
:105150008A4A0B43936503E097F8273187F8263195
:10516000D7F81431D3E9002302F00073C7F8F83000
:105170000023C7F8FC30D7E93E120B4613433AD060
:10518000D7F81431DB6C302B1FD0302B19D8202BE3
:105190000CD0202B15D8002B19D0102B11D1774B08
:1051A000DB6A764A43F40033D36211E0D7F8143156
:1051B00008330221184601F0C5FA034687F8273163
:1051C00006E0012387F8273102E000BF00E000BFBE
:1051D00097F82731002B0AD1684BDB6C23F03001A4
:1051E000D7F81431DB6C654A0B43D36403E097F8BE
:1051F000273187F82631D7F81431D3E9002302F498
:105200008053C7F8F0300023C7F8F430D7E93C12D8
:105210000B46134351D0D7F814311B6EB3F5804FB2
:1052200035D0B3F5804F2ED8B3F5405F31D0B3F50C
:10523000405F28D8B3F5005F1AD0B3F5005F22D8DD
:10524000002B03D0B3F5805F07D01CE04B4BDB6A2B
:105250004A4A43F40033D3621CE0D7F814310833D0
:105260000021184601F06EFA034687F8273111E055
:10527000D7F8143128330021184601F015FB0346F6
:1052800087F8273106E0012387F8273102E000BFC5
:1052900000E000BF97F82731002B0AD1374B1B6D78
:1052A00023F4E041D7F814311B6E344A0B431365E5
:1052B00003E097F8273187F82631D7F81431D3E97E
:1052C000002302F40053C7F8E8300023C7F8EC309D
:1052D000D7E93A120B46134356D0D7F814315B6E18
:1052E000B3F5A02F33D0B3F5A02F2CD8B3F5802F72
:1052F0002FD0B3F5802F26D8B3F5403F2BD0B3F590
:10530000403F20D8B3F5003F12D0B3F5003F1AD884
:10531000002B22D0B3F5803F15D1D7F814310833D4
:105320000121184601F00EFA034687F8273115E0EF
:10533000D7F8143128330121184601F0B5FA034695
:1053400087F827310AE0012387F8273106E000BFFC
:1053500004E000BF02E000BF00E000BF97F8273183
:10536000002B0DD1054B1B6D23F4E021D7F8143130
:105370005B6E024A0B43136506E000BF004402580F
:1053800097F8273187F82631D7F81431D3E900236D
:1053900002F48043C7F8E0300023C7F8E430D7E9CF
:1053A00038120B46134355D0D7F81431D3F8B03028
:1053B000B3F1A04F33D0B3F1A04F2CD8B3F1804F4D
:1053C0002FD0B3F1804F26D8B3F1405F2BD0B3F18B
:1053D000405F20D8B3F1005F12D0B3F1005F1AD85C
:1053E000002B22D0B3F1805F15D1D7F814310833E8
:1053F0000121184601F0A6F9034687F8273115E088
:10540000D7F8143128330121184601F04DFA03462C
:1054100087F827310AE0012387F8273106E000BF2B
:1054200004E000BF02E000BF00E000BF97F82731B2
:10543000002B0BD1A34B9B6D23F0E041D7F8143127
:10544000D3F8B0309F4A0B43936503E097F82731B8
:1054500087F82631D7F81431D3E9002302F400434A
:10546000C7F8D8300023C7F8DC30D7E936120B462E
:10547000134337D0D7F814311B6FB3F1005F0ED050
:10548000B3F1005F16D8002B18D0B3F1805F11D1B3
:105490008C4BDB6A8B4A43F40033D3620FE0D7F8BE
:1054A000143108330121184601F04CF9034687F8FE
:1054B000273104E0012387F8273100E000BF97F887
:1054C0002731002B0AD17F4B1B6D23F04051D7F8B9
:1054D00014311B6F7B4A0B43136503E097F82731A8
:1054E00087F82631D7F81431D3E9002302F080730E
:1054F000C7F8D0300023C7F8D430D7E934120B46B0
:10550000134339D0D7F814319B6C032B1CD801A25C
:1055100052F823F05155000825550008335500086E
:1055200051550008674BDB6A664A43F40033D36287
:105530000FE0D7F8143108330221184601F002F9C0
:10554000034687F8273104E0012387F8273100E07C
:1055500000BF97F82731002B0AD15A4BDB6C23F0A0
:105560000301D7F814319B6C564A0B43D36403E014
:1055700097F8273187F82631D7F81431D3E900237B
:1055800002F48003C7F8C8300023C7F8CC30D7E94D
:1055900032120B46134300F09F804B4B1B684A4A64
:1055A00043F480731360FCF765F8C7F820010BE043
:1055B000FCF760F80246D7F82031D31A642B03D9E0
:1055C000032387F8273105E03F4B1B6803F4807302
:1055D000002BEDD097F82731002B79D1394B1A6F7A
:1055E000D7F81431D3F8B430534003F44073002B90
:1055F00015D0344B1B6F23F44073C7F81C31314B6B
:105600001B6F304A43F4803313672E4B1B6F2D4AB8
:1056100023F4803313672B4AD7F81C311367D7F86C
:105620001431D3F8B430B3F5807F18D1FCF722F8E9
:10563000C7F820010DE0FCF71DF80246D7F820312D
:10564000D21A41F288339A4203D9032387F82731CB
:1056500005E01C4B1B6F03F00203002BEBD097F807
:105660002731002B29D1D7F81431D3F8B43003F403
:105670004073B3F5407F0ED1124B1B6923F47C516C
:10568000D7F81431D3F8B4301A09104B13400D4A2F
:105690000B43136105E00B4B1B690A4A23F47C534F
:1056A0001361084B196FD7F81431D3F8B430C3F332
:1056B0000B03044A0B4313670EE097F8273187F872
:1056C000263109E00044025800480258CFFFFF008D
:1056D00097F8273187F82631D7F81431D3E900231A
:1056E00002F00103C7F8C0300023C7F8C430D7E97F
:1056F00030120B46134300F08980D7F81431DB6F6A
:10570000282B6BD801A252F823F000BFE557000800
:10571000DD570008DD570008DD570008DD57000899
:10572000DD570008DD570008DD570008B1570008B5
:10573000DD570008DD570008DD570008DD57000879
:10574000DD570008DD570008DD570008C75700087F
:10575000DD570008DD570008DD570008DD57000859
:10576000DD570008DD570008DD570008E557000841
:10577000DD570008DD570008DD570008DD57000839
:10578000DD570008DD570008DD570008E557000821
:10579000DD570008DD570008DD570008DD57000819
:1057A000DD570008DD570008DD570008E557000801
:1057B000D7F8143108330121184600F0C3FF03461F
:1057C00087F827310FE0D7F8143128330121184624
:1057D00001F06AF8034687F8273104E0012387F8CF
:1057E000273100E000BF97F82731002B0AD1BF4BCB
:1057F0005B6D23F03801D7F81431DB6FBB4A0B43E4
:10580000536503E097F8273187F82631D7F814312C
:10581000D3E9002302F00203C7F8B8300023C7F829
:10582000BC30D7E92E120B46134341D0D7F81431C0
:105830009B6F052B24D801A252F823F08958000849
:10584000555800086B580008895800088958000806
:1058500089580008D7F8143108330121184600F0A0
:1058600071FF034687F827310FE0D7F8143128334A
:105870000121184601F018F8034687F8273104E0A3
:10588000012387F8273100E000BF97F82731002B6C
:105890000AD1964B5B6D23F00701D7F814319B6F4B
:1058A000924A0B43536503E097F8273187F8263176
:1058B000D7F81431D3E9002302F00403C7F8B0305D
:1058C0000023C7F8B430D7E92C120B46134344D059
:1058D000D7F81431D3F89430052B25D801A252F80B
:1058E00023F000BF31590008FD5800081359000883
:1058F000315900083159000831590008D7F81431DE
:1059000008330121184600F01DFF034687F82731B0
:105910000FE0D7F8143128330121184600F0C4FFF6
:10592000034687F8273104E0012387F8273100E098
:1059300000BF97F82731002B0BD16C4B9B6D23F0E8
:105940000701D7F81431D3F89430684A0B439365B4
:1059500003E097F8273187F82631D7F81431D3E9D7
:10596000002302F02003C7F8A8300023C7F8AC30AA
:10597000D7E92A120B46134355D0D7F81431D3F880
:105980009030B3F1A04F33D0B3F1A04F2CD8B3F186
:10599000804F2FD0B3F1804F26D8B3F1405F2BD08A
:1059A000B3F1405F20D8B3F1005F12D0B3F1005FD4
:1059B0001AD8002B22D0B3F1805F15D1D7F814315B
:1059C00008330021184600F0BDFE034687F8273152
:1059D00015E0D7F8143128330221184600F064FF8F
:1059E000034687F827310AE0012387F8273106E0CC
:1059F00000BF04E000BF02E000BF00E000BF97F876
:105A00002731002B0BD1394B5B6D23F0E041D7F8E8
:105A10001431D3F89030354A0B43536503E097F8BF
:105A2000273187F82631D7F81431D3E9002302F063
:105A30004003C7F8A0300023C7F8A430D7E92812E4
:105A40000B46134358D0D7F81431D3F89C30B3F534
:105A5000A05F33D0B3F5A05F2CD8B3F5805F2FD013
:105A6000B3F5805F26D8B3F5406F2BD0B3F5406F08
:105A700020D8B3F5006F12D0B3F5006F1AD8002B01
:105A800022D0B3F5806F15D1D7F814310833002137
:105A9000184600F057FE034687F8273115E0D7F87F
:105AA000143128330221184600F0FEFE034687F821
:105AB00027310AE0012387F8273106E000BF04E020
:105AC00000BF02E000BF00E000BF97F82731002BC5
:105AD0000ED1064B9B6D23F4E051D7F81431D3F867
