:020000040800F2
:1000000000000824916E000821170008231700083B
:10001000251700082717000829170008000000000E
:100020000000000000000000000000002B17000886
:100030002D170008000000002F17000831170008D6
:10004000E16E0008E16E0008E16E0008E16E000854
:10005000E16E0008E16E0008E16E0008E16E000844
:10006000E16E0008E16E0008E16E0008E16E000834
:10007000E16E0008E16E0008E16E0008E16E000824
:10008000E16E0008E16E0008E16E0008E16E000814
:10009000E16E0008E16E0008E16E0008E16E000804
:1000A000E16E0008E16E0008E16E0008E16E0008F4
:1000B000E16E0008E16E0008E16E0008E16E0008E4
:1000C000E16E0008E16E0008E16E0008E16E0008D4
:1000D000E16E0008411700084D1700085917000885
:1000E000E16E0008E16E000800000000E16E00080B
:1000F000E16E0008E16E0008E16E0008E16E0008A4
:10010000E16E0008E16E0008E16E0008E16E000893
:10011000E16E0008E16E0008E16E0008E16E000883
:10012000E16E0008E16E0008E16E0008E16E000873
:10013000E16E0008E16E0008E16E0008E16E000863
:1001400000000000000000000000000000000000AF
:10015000E16E0008E16E0008E16E00086517000816
:10016000E16E0008E16E0008E16E0008E16E000833
:10017000E16E0008E16E0008E16E0008000000007A
:10018000E16E0008E16E0008E16E0008E16E000813
:10019000E16E0008E16E0008E16E0008E16E000803
:1001A000E16E0008E16E0008E16E0008E16E0008F3
:1001B000E16E0008E16E0008E16E0008E16E0008E3
:1001C000E16E0008E16E0008E16E0008E16E0008D3
:1001D000E16E000835170008E16E0008E16E0008C6
:1001E000E16E0008E16E0008E16E0008E16E0008B3
:1001F000E16E0008E16E0008E16E0008E16E0008A3
:10020000E16E0008E16E0008E16E0008E16E000892
:10021000E16E0008E16E0008E16E0008E16E000882
:10022000E16E0008E16E0008E16E000800000000C9
:10023000E16E0008E16E000800000000E16E0008B9
:10024000E16E0008E16E0008E16E0008E16E000852
:10025000E16E0008E16E0008E16E0008E16E000842
:10026000E16E0008E16E0008E16E0008E16E000832
:10027000E16E0008E16E0008E16E0008E16E000822
:10028000E16E000800000000E16E000800000000C0
:0802900000000000E16E00080F
:1002A000034613F8012B002AFBD1181A01387047B6
:1002B00001F0FF01102A2BDB10F0070F08D010F817
:1002C000013B013A8B422DD010F0070F42B3F6D11B
:1002D000F0B441EA012141EA014122F007047FF034
:1002E00000070023F0E80256083C85EA010586EA8B
:1002F000010685FA47F5A3FA87F586FA47F6A5FAC7
:1003000087F68EB9EED1F0BC01F0FF0102F00702D2
:1003100032B110F8013B013A83EA010313B1F8D17D
:100320000020704701387047002D06BF354603385E
:10033000073815F0010F07D1013015F4807F02BF97
:10034000013015F4C03F0130F0BC0138704700BFE8
:1003500081F0004102E000BF83F0004330B54FEA76
:1003600041044FEA430594EA050F08BF90EA020FE3
:100370001FBF54EA000C55EA020C7FEA645C7FEA76
:10038000655C00F0E2804FEA5454D4EB5555B8BF99
:100390006D420CDD2C4480EA020281EA030382EA0A
:1003A000000083EA010180EA020281EA0303362D9C
:1003B00088BF30BD11F0004F4FEA01314FF4801C6F
:1003C0004CEA113102D0404261EB410113F0004F81
:1003D0004FEA03334CEA133302D0524263EB430338
:1003E00094EA050F00F0A780A4F10104D5F1200ED6
:1003F0000DDB02FA0EFC22FA05F2801841F1000131
:1004000003FA0EF2801843FA05F359410EE0A5F104
:1004100020050EF1200E012A03FA0EFC28BF4CF035
:10042000020C43FA05F3C01851EBE37101F00045EB
:1004300007D54FF0000EDCF1000C7EEB00006EEBF8
:100440000101B1F5801F1BD3B1F5001F0CD3490882
:100450005FEA30004FEA3C0C04F101044FEA4452D9
:1004600012F5800F80F09A80BCF1004F08BF5FEA60
:10047000500C50F1000041EB045141EA050130BD40
:100480005FEA4C0C404141EB0101013C28BFB1F552
:10049000801FE9D291F0000F04BF01460020B1FA9D
:1004A00081F308BF2033A3F10B03B3F120020CDA70
:1004B0000C3208DD02F1140CC2F10C0201FA0CF04E
:1004C00021FA02F10CE002F11402D8BFC2F1200CB3
:1004D00001FA02F120FA0CFCDCBF41EA0C01904069
:1004E000E41AA2BF01EB0451294330BD6FEA0404B2
:1004F0001F3C1CDA0C340EDC04F11404C4F120029D
:1005000020FA04F001FA02F340EA030021FA04F3AE
:1005100045EA030130BDC4F10C04C4F1200220FA05
:1005200002F001FA04F340EA0300294630BD21FA43
:1005300004F0294630BD94F0000F83F4801306BF09
:1005400081F480110134013D4EE77FEA645C18BFFD
:100550007FEA655C29D094EA050F08BF90EA020F94
:1005600005D054EA000C04BF1946104630BD91EA8C
:10057000030F1EBF0021002030BD5FEA545C05D18F
:100580004000494128BF41F0004130BD14F58004CE
:100590003CBF01F5801130BD01F0004545F0FE4142
:1005A00041F470014FF0000030BD7FEA645C1ABF77
:1005B000194610467FEA655C1CBF0B46024650EAAE
:1005C000013406BF52EA033591EA030F41F40021DA
:1005D00030BD00BF90F0000F04BF0021704730B560
:1005E0004FF4806404F132044FF000054FF0000135
:1005F00050E700BF90F0000F04BF0021704730B5F6
:100600004FF4806404F1320410F0004548BF4042CA
:100610004FF000013EE700BF42004FEAE2014FEA1F
:1006200031014FEA02701FBF12F07F4393F07F4FFA
:1006300081F06051704732F07F4208BF704793F0FD
:100640007F4F04BF41F40021704730B54FF4607410
:1006500001F0004521F000411CE700BF50EA010213
:1006600008BF704730B54FF000050AE050EA0102BC
:1006700008BF704730B511F0004502D5404261EB2C
:1006800041014FF4806404F132045FEA915C3FF46D
:10069000D8AE4FF003025FEADC0C18BF03325FEA0A
:1006A000DC0C18BF033202EBDC02C2F1200300FABB
:1006B00003FC20FA02F001FA03FE40EA0E0021FAE0
:1006C00002F11444BDE600BF53B94AB9002908BF7E
:1006D00000281CBF4FF0FF314FF0FF3000F00CB886
:1006E000ADF1080C6DE904CE0AF09AFBDDF804E0E8
:1006F000DDE9022304B07047704700BF0348044B94
:10070000834202D0034B03B1184770476C030024A7
:100710006C030024000000000548064B1B1AD90F8B
:1007200001EBA301491002D0034B03B118477047F6
:100730006C0300246C0300240000000010B5064C7C
:10074000237843B9FFF7DAFF044B13B10448AFF342
:1007500000800123237010BD8003002400000000EE
:1007600018B1000808B5054B1BB105490548AFF3A2
:100770000080BDE80840FFF7CFBF00BF00000000C9
:100780008403002418B1000870B5CCB04C220021BD
:1007900001AC09A807F044FE20220021204607F002
:1007A0003FFEC02200211CA807F03AFE022002F002
:1007B0003DFB00236A4600932C4B996941F440416C
:1007C0009961996901F4404100912949C86A40F052
:1007D0000100C862C96A01F00101009112689A69BA
:1007E0009604FCD54FF4803321210525C02208262C
:1007F00009A8CDE909130123CDE914520F9304256B
:100800000223CDE912331693CDE917530023CDE926
:1008100019631B9302F036FB08B172B6FEE73F2264
:1008200003232946C4E9002340234FF48062C4E92E
:1008300002062046C4E90433C4E9062302F06CFE34
:1008400008B172B6FEE700234FF480221CA8CDE960
:100850001C234FF440133E9303F0B6F808B172B670
:10086000FEE702F007FB4CB070BD00BF0048025825
:10087000000400580146006818B10122043104F058
:100880005FBE704737B51446D2B107F0F0FDA8B18E
:100890003A2107F0CDFD88B1431C1D4613F8012B0A
:1008A000202AFAD0092AF8D0284601A907F048FBE7
:1008B000019B84ED000A581B18BF012003B030BD16
:1008C0001046FBE7421E013910B512F8010F11F86E
:1008D000013F70B16BB1A0F16104192CA3F1610467
:1008E0009CBF2038C0B2192C9CBF203BDBB2984281
:1008F000EBD0C01A10BD0000021F00F11803094818
:1009000070B5094D52F8044F0421E6B201394FEA9F
:10091000142480EA060005FB00F0F6D19A42F1D1DA
:1009200070BD00BFC59D1C819301000110B5B0B121
:1009300001680C4A914212D14268B2F5803F0ED153
:10094000C1684FF6FE72914209D80169914206D8FA
:10095000C469FFF7D1FF231A5842584110BD002047
:10096000FCE700BF434647481F31014421F01F0107
:100970000B1A002B0BDDBFF34F8F054BC3F85C0246
:1009800020308142FAD1BFF34F8FBFF36F8F704792
:1009900000ED00E010B5037804460130202BFAD0BA
:1009A000092BF8D02046FFF77BFC20448442024606
:1009B00005D210F8013D202BF8D0092BF6D00023EA
:1009C0002046137010BD00234FF4E13210B5C0E98A
:1009D00001230C2201600446C0E90333C0E905236A
:1009E000C0E90733C0E9093304F0F0FC014608B15F
:1009F00072B6FEE7204604F005FE014608B172B665
:100A0000FEE7204604F01EFE08B172B6FEE720465F
:100A100004F0DDFD08B172B6FEE710BD2DE9F74F19
:100A20000F23314A80461360304B1C88304BD480F2
:100A30001B881C4413814FF6FE739C4228BF1C4642
:100A4000A3B2019353812B4B1B6813B11B1A23EAEA
:100A5000E3730021284FD3608A4689460D46084635
:100A60008C468E46012497F826B004FA0EF6F6B2AC
:100A7000BBF1000F24D07C69A8EB040BBBF1780F0D
:100A80001ED8B88946EA0C0C019CA0421CD8012053
:100A90000EF1010E2837BEF1040FE3D109B182F83F
:100AA00003A0B9F1000F1AD0957008B182F801C007
:100AB0008DB9002313710023537103B0BDE8F08F8B
:100AC00035434FF00109E3E7012146EA0A0A3543BD
:100AD00089460846DCE7B3FA83F35B09EAE70028B6
:100AE000E7D082F801C0E4E74C04002402000024AF
:100AF000000000246004002404000024F0B5ADF2DE
:100B00000C4D0746FFF78AFF4A4B20AD00241A46DA
:100B1000294693F82600002800F087805869381A83
:100B2000782800F282809E890134283325F8026BF0
:100B3000042CEED1404803685C1C046092F87D00F0
:100B40003E4C1E9092F855001D9092F82D001C907E
:100B500050791B90B2F89C001A90B2F8740019906A
:100B6000B2F84C001890908C1790B2F89A0016903A
:100B7000B2F872001590B2F84A001490508C13909D
:100B8000B2F898001290B2F870001190B2F84800D4
:100B90001090108C0F90D2F894000E90D06E0D90A3
:100BA000506C0C90D0690B90D2F890000A90906E27
:100BB0000990106C089022A892690792A278069278
:100BC000627805921E4A12780492CA8803928A8833
:100BD00002924A8801920A884FF4C0710092194A21
:100BE00007F03AFB6389184A4FF40071079382A813
:100BF00023890693E3880593E36804936379039359
:100C00002379029323780193E378009322AB07F0D2
:100C100023FB82A9002211F8013B4BB982A90B48A2
:100C200006F0E0F90DF20C4DF0BD4FF6FF767BE7D4
:100C30005A40F0E704000024700400244C0400240F
:100C4000640400243CB10008C3B10008F8B10008F6
:100C5000BA4B5A6912F400322DE980488BB011D199
:100C6000BFF34F8FBFF36F8FC3F85022BFF34F8F87
:100C7000BFF36F8F5A6942F400325A61BFF34F8F4E
:100C8000BFF36F8FAD4A536913F4803323D1C2F899
:100C90008430BFF34F8FD2F8803043F6E074C3F353
:100CA000C900C3F34E335B0103EA0406014646EA7A
:100CB00081750139C2F86052F9D2203B13F1200F3F
:100CC000F2D1BFF34F8F536943F480335361BFF3C5
:100CD0004F8FBFF36F8F00F027FE0024FFF754FD06
:100CE000012505F01BFA142200214FF480660DEB5C
:100CF0000200DFF8A89207F093FB914B4FF480615C
:100D00009048D3F8E020904F42F01002DFF8908234
:100D1000DFF890A2C3F8E0200122D3F8E03003F01E
:100D200010030393039B01F01BFB112305A98548C6
:100D3000CDE90563CDE9075401F026FA83498448DB
:100D4000FFF741FE83498448FFF73DFE834984480D
:100D5000FFF739FE83498448FFF735FE06F0C2F8F5
:100D600000F01CFE814B83462A46314675481C70B4
:100D700001F0F6FA2A464FF400517D4801F0F0FAEE
:100D80007C4B7D4A4FF400311C6040F287137B4E50
:100D900013801C237A4DA9F800307A4B78481C60E8
:100DA000794BC7F800B0C8F800B0CAF800B034609A
:100DB0001C70FFF7D9FD2A4605F1200113680133A5
:100DC00040F0A28004328A42F8D13CB1E3686A4A1A
:100DD00013802369A9F80030A368336000256B48AD
:100DE0004FF6FF732C46013583818472447104846D
:100DF0004484848480F8264080F827400190C0E92C
:100E000004B4C0E90644FFF735FD0198042D4FF600
:100E1000FF7300F12800E6D15D4C00F0BFFD5A4B96
:100E200005461B78002B45D0DAF80030C31AB3F51D
:100E30007A7F3FD314220021DFF844B10DEB02008A
:100E400007F0EEFA53484FF480324FF0FF33C4E915
:100E5000000232684E4801320493A361A260464A00
:100E60001288E260B9F80020C4E90423FFF744FDCA
:100E7000E0615A460BF120011068013058D104326C
:100E80008A42F9D100F090FFA0B9BBF1026F40F0A7
:100E90009280072302220121059005A8CDE90623AF
:100EA0002023CDE9081304A901F0D8F800287BD04D
:100EB00000F0A0FF2846FFF7B1FD374B2B491A7908
:100EC0002048131EB2FA82F218BF012352090B7098
:100ED0004FF4806101F044FA3B68EB1A1D2B03D9F3
:100EE00028463D60FFF70AFED8F80030EB1AF92BD0
:100EF00006D94FF400511E48C8F8005001F035FAE9
:100F0000012000F051FD88E728460191FFF70EFD12
:100F1000019928B154B1AA68A3689A4228BF2C4607
:100F2000B1F1026F0D467FF446AF4EE72C46F7E76E
:100F3000B1F1026F8B469CD1A4E700BF00ED00E049
:100F400000440258001002586C04002400100140B4
:100F500030060024004400409C0500240048004066
:100F600008050024001401407404002464040024D3
:100F7000000802586004002402000024C403002476
:100F800000001E08C8030024C0030024040000243D
:100F9000A0030024434647484C04002400000024DA
:100FA000680400245C040024DFF854B04FF40031DE
:100FB0001348FFF7D9FCBFF34F8F124AC2F86842BB
:100FC000BFF34F8FBFF36F8F01202246594600F0C9
:100FD00089FF019000F00EFF019B002B7FF46AAFA8
:100FE00058462021FFF7C0FC5846FFF79FFC002819
:100FF0003FF460AFA368019A3360034B1A7059E75E
:1010000000001E0800ED00E0C00300242DE9F04FB1
:101010008FB028B1431883460793079B5B4502D1E5
:101020000FB0BDE8F08F1BF8013B0D2BF5D00A2B5C
:1010300040F0A581B24B1B68002BEED00022B149D5
:10104000CA5400F0ABFC0690AE48FFF7A3FC03784F
:101050000546002B00F09180242B4FF02A0108BF99
:101060000135284607F0E4F9044698B1002610221D
:101070000DA904F8016B204607F020F80D9B9C4257
:101080007BD0C0B2691E334611F8012F002A40D12F
:10109000984272D12846FFF77DFC03780646002B64
:1010A0006BD00CAB0DF13409002409AA01930BABF2
:1010B000954900930AABCDF808900D94CDE90B4407
:1010C00007F000F9012865DD0A9BB3EB040A18BF9D
:1010D0004FF0010A022854D00B9D4FF6FE72954244
:1010E00084BF15460B920328ADB214D00C9C4FF66A
:1010F000FE72944284BF14460C920428A4B246D0D7
:101100000D980127814AB846904228BF1046012217
:1011100007E05340B8E700244FF001082746204677
:1011200022467B4B7B491E88B1F800E0B8F1000FE6
:1011300000F023811D8007B10C8040F6B834002AEE
:1011400008BF2046AE4240F027810A88B2EB0E026B
:1011500018BF0122BAF1000F08D040F6B8330028BA
:1011600008BF1846069B18446B4B18602AB16B4B9E
:1011700001221A706A4B069A1A60614B00221A60AB
:101180004BE72546A046474600200246C9E74FF0F8
:101190000108F8E733787B2B1BD027462546A0466D
:1011A00060493046FFF78EFB78B15F493046FFF764
:1011B00089FB50B15D493046FFF784FB28B15C499B
:1011C0003046FFF77FFB0028D7D102464FF0010AD7
:1011D000A7E74A4657493046FFF754FB40B1DDEDDB
:1011E0000D7AF5EEC07AF1EE10FA19D8002525E057
:1011F0004A4651493046FFF745FB80460028EED16C
:1012000005464A464D493046FFF73CFBC8B1DDED87
:101210000D7AF5EEC07AF1EE10FA56D8002462E0AD
:10122000B6EE007A4FF6FE7377EE877AFCEEE77A39
:1012300017EE905A9D4228BF1D46ADB24FF00108EF
:10124000DFE74A463E493046FFF71CFB0028DED167
:101250004A463C493046FFF715FB07460028D6D1E1
:101260000446CDF814804A4637493046FFF70AFB5A
:1012700000283BD0F6EE007A9DED0D7A0123B4EE06
:10128000E77A0593F1EE10FACCBF4FF0010A4FF068
:10129000000A4A462D493046FFF7F4FA002859D093
:1012A000DDED0D7AF5EEC07AF1EE10FAFFF66CAFD7
:1012B000B6EE007A154A77EE877AFCEEE77A17EEFB
:1012C000900A904228BF104621E7B6EE007A4FF60A
:1012D000FE7377EE877AFCEEE77A17EE904A9C422F
:1012E00028BF1C46A4B201270597BCE74A46184907
:1012F0003046FFF7C7FA82460028BBD1C9E700BFD6
:10130000C8030024CC03002403B20008C02709004E
:10131000020000240000002460040024C003002414
:101320005C0400249CB20008A4B2000898B2000833
:10133000A0B200081DB200082BB2000836B20008A7
:1013400045B2000851B2000857B200086FB2000859
:1013500065B200084A4613493046FFF793FA002861
:101360009ED14A4610493046FFF78CFA002897D1A3
:10137000059B002B7FF408AF12E73546DBE61F2BF9
:101380007FF64BAE094802687E2A3FF6F6AE511C46
:10139000016007498B5440E6BAF1000F3FF4E7AE15
:1013A0005246DAE681B200088EB20008C803002473
:1013B000CC030024F8B5282200253C4C02FB05F3A1
:1013C0001E19E358984228D1377900F0E7FA3369BB
:1013D000C31A0A2B25D8282303FB05439A691861F1
:1013E00001325F719A619A7AF2B9FF2F1CD01A8C80
:1013F0004FF6FF718A421CBF01321A84282303FB77
:10140000054393F82720FF2A02D0013283F82720D2
:101410003046BDE8F840FFF72DBA0135042DCDD197
:10142000F8BD0023B372D6E7511C2823C9B203FBD1
:10143000054303291A4499729771E9D993F807C0B3
:10144000002799791A7A614493F809E09F72114450
:10145000C9B28E4511D05A8C4FF6FF718A421CBF1B
:1014600001325A84282303FB054494F82730FF2BCC
:10147000CED0013384F82730CAE742EA0C22D9697A
:10148000586101319A81013A83F82770D9614FF68A
:10149000FD7192B28A4289BF4FF6FF72012283F832
:1014A00026709A8198BF83F82620B1E704000024B3
:1014B00030B4014600222825154B05FB02F4E01844
:1014C0001C59A1421CD100244FF6FF758472848CF4
:1014D000AC421AD1282404FB023393F82720FF2AB8
:1014E0001CBF013283F8272008220B681A620422ED
:1014F0001A6202221A62012230BC1A62FFF7BAB9DC
:101500000132042AD9D130BC704701348484E1E728
:101510000400002472B6FEE77FB502220123019188
:101520000321CDE902230723CDE9041301A900F02B
:101530002BFE07B05DF804FB074B82B0D3F8F42014
:1015400042F00202C3F8F420D3F8F43003F00203AF
:101550000193019B02B070470044025810B5B8B027
:101560000446C022002108A806F05AFF2368644AF6
:10157000934231D10122002308A8CDE9082302F0CB
:1015800023FA08B1FFF7C6FF5E4B4FF4C0615E4817
:10159000D3F8F02042F01002C3F8F020D3F8F02086
:1015A00002F010020092009AD3F8E02042F001020B
:1015B000C3F8E020D3F8E03003F001030193019B6E
:1015C000FFF7AAFF25200022052100F017FA2520A9
:1015D00000F046FA38B010BD4C4A93422DD1022299
:1015E000002308A8CDE9082302F0EEF908B1FFF7BF
:1015F00091FF444B60214648D3F8E82042F4003282
:10160000C3F8E820D3F8E82002F400320292029AEC
:10161000D3F8E02042F00802C3F8E020D3F8E0302D
:1016200003F008030393039BFFF776FF26200022B5
:10163000052100F0E3F92620CAE7364A93422ED16D
:101640000222002308A8CDE9082302F0BDF908B161
:10165000FFF760FF2B4B4FF440712D48D3F8E82083
:1016600042F48022C3F8E820D3F8E82002F4802274
:101670000492049AD3F8E02042F00802C3F8E02074
:10168000D3F8E03003F008030593059BFFF744FF10
:1016900027200022052100F0B1F9272098E71E4AF3
:1016A000934297D10122002308A8CDE9082302F034
:1016B0008BF908B1FFF72EFF124BC0211748D3F862
:1016C000F02042F02002C3F8F020D3F8F02002F01E
:1016D00020020692069AD3F8E02042F00402C3F8F2
:1016E000E020D3F8E03003F004030793079BFFF7F3
:1016F00013FF47200022052100F080F9472067E70B
:10170000001001400044025800000258004400400C
:10171000000C025800480040001401400008025824
:10172000FEE7FEE7FEE7FEE7FEE77047704770471B
:1017300000F028B9014800F0D3BF00BFE81D002425
:10174000014802F0C1BF00BF30060024014802F08A
:10175000BBBF00BF9C050024014802F0B5BF00BF1D
:1017600008050024014802F0AFBF00BF7404002444
:101770000120704708B506F0D7FE162303604FF02E
:10178000FF3008BD08B506F0CFFE16230360FEE764
:1017900070B50D4614460E46731B9C4201DC204674
:1017A00070BDAFF3008006F8010BF5E770B50D468C
:1017B00014460E46731B9C4201DC204670BD16F891
:1017C000010BAFF30080F5E74FF0FF3070474FF4A7
:1017D000005300204B607047012070470020704785
:1017E0000A4A0346106810B508B90948106009494B
:1017F0000344094C091B8B4206D906F095FE0C23C5
:1018000003604FF0FF3010BD1360FCE7C4060024F6
:10181000182400240000082400040000254AD2F8FF
:10182000883043F47003C2F88830234A136803F009
:101830000F03062B05D8136823F00F0343F00703AB
:1018400013601E4B1A6842F001021A6000221A61EE
:101850001B4A19680A4018491A600A68120705D518
:101860000A6822F00F0242F007020A6000221549BE
:101870009A61DA611A6299621349D962134919634C
:101880005A639963DA6319645A64196821F48021F0
:1018900019601A660E4B1B686FF30F03B3F1005FFC
:1018A00003D20C4B0122C3F808210B4B43F2D202A6
:1018B0001A60704700ED00E000200052004402581A
:1018C0007FEDF6EA000202020000FF018002010142
:1018D0000010005C008000510040005238B50F4BF2
:1018E00005461A780AB9012038BD4FF47A73B3FB64
:1018F000F2F30B4A1068B0FBF3F000F0BFF80446B7
:101900000028F0D10F2DEED8024629464FF0FF30C7
:1019100000F074F8034B20461D60E5E7AC0000249E
:10192000A8000024B000002410B5032000F054F8F3
:1019300001F050FD0F49104A8B69C3F30323D35CB8
:1019400003F01F03D8408B6903F00F03D35C0B4AED
:1019500003F01F0320FA03F31360094B18600F20F4
:10196000FFF7BCFF044618B9FFF7E6FD204610BD9F
:101970000124FBE70044025871B40008A4000024CD
:10198000A8000024034A044B11681B780B44136021
:10199000704700BFC8060024AC000024014B186843
:1019A000704700BFC806002438B50446FFF7F6FFAD
:1019B0000546631C1EBF044B1B78E418FFF7EEFFBF
:1019C000431BA342FAD338BDAC000024014B186876
:1019D000000C70470010005C07490302CA6803F45A
:1019E000E06322F4E0621204120C134343F0BF637D
:1019F00043F40033CB60704700ED00E0164B30B588
:101A0000DC68C4F30224C4F10703251D042B28BF9E
:101A10000423062D4FF0FF358CBF033C002405FA4C
:101A200003F3002805FA04F521EA030322EA05027C
:101A300003FA04F343EA02034FEA0313DBB206DBC3
:101A400000F1604000F5614080F8003330BD00F0E7
:101A50000F00024A1354F9E700ED00E014ED00E036
:101A6000002807DB0123410900F01F00024A8340E0
:101A700042F82130704700BF00E100E00138B0F1CA
:101A8000807F0BD24FF0E023054AF02158610020FF
:101A900082F82310072298611A617047012070476D
:101AA00000ED00E0F8B50546FFF778FF064645B1C2
:101AB00095F83530022B06D080236B65002385F81E
:101AC00034300120F8BD2C686D4FBC422DD06D4BD9
:101AD0009C422AD018339C4227D018339C4224D0F1
:101AE00018339C4221D018339C421ED018339C429C
:101AF0001BD018339C4218D003F556739C4214D067
:101B000018339C4211D018339C420ED018339C429B
:101B10000BD018339C4208D018339C4205D01833A0
:101B20009C4202D018339C4211D1236823F0010358
:101B30002360236823F01E032360636923F080037E
:101B400063612A6E136823F4807313601FE02368B7
:101B500023F001032360236823F00E0323604A4B24
:101B60009C42EED014339C42EBD014339C42E8D01C
:101B700014339C42E5D014339C42E2D014339C428F
:101B8000DFD014339C42DCD014339C42D9D023687C
:101B9000DB0747D42B68EA6DBB42A86D02F01F0239
:101BA0004BD038498B4248D018318B4245D0183140
:101BB0008B4242D018318B423FD018318B423CD0FF
:101BC00018318B4239D018318B4236D001F556711D
:101BD0008B4232D018318B422FD018318B422CD00F
:101BE00018318B4229D018318B4226D018318B42C4
:101BF00023D018318B4220D018318B421DD00121C7
:101C000001FA02F24260204A93421AD1D5E9193210
:101C10005A60EB6E5BBB0123002085F8353085F8F8
:101C200034004FE7FFF7BAFE801B0528AFD9202309
:101C30006B65032385F8353040E73F23934083608D
:101C4000E4E7124A9342E1D014329342DED01432D8
:101C50009342DBD014329342D8D014329342D5D081
:101C600014329342D2D014329342D4D1CEE71A68C0
:101C700022F480721A60D5E91C325A60CBE700BFAB
:101C80001000024028000240085402581C54025818
:101C900008B528B190F83530022B03D08023436576
:101CA000012039E003683E4A93422DD01832934216
:101CB0002AD01832934227D01832934224D01832B7
:101CC000934221D0183293421ED0183293421BD037
:101CD0001832934218D002F55672934214D018323B
:101CE000934211D0183293420ED0183293420BD047
:101CF0001832934208D01832934205D018329342DA
:101D000002D01832934208D1042280F835201A6894
:101D100022F001021A60002008BD1A6822F00102B8
:101D20001A601A6822F00E021A601E4A934214D0FA
:101D30001432934211D0143293420ED01432934293
:101D40000BD01432934208D01432934205D014328F
:101D5000934202D01432934217D1026E136823F4D7
:101D600080731360D0E9161303F01F020123934020
:101D70004B60D0E919325A60C36E33B11A6822F44D
:101D800080721A60D0E91C325A60012380F8353025
:101D9000002380F83430036D002BBCD09847BAE79D
:101DA0001000024008540258104BDA68D20706D4DB
:101DB0000E4BD3F80C0110F001000AD170470C4A09
:101DC0005A6002F188325A60DB68DB07F0D50120E7
:101DD0007047074AC3F8042102F18832C3F804218E
:101DE000D3F80C0100F00100704700BF0020005242
:101DF000230167450A4BDA6842F00102DA60DA68CB
:101E0000D2070BD5D3F80C2142F00102C3F80C2104
:101E1000D3F80C01C04300F0010070470120704767
:101E2000002000522DE9F0410D460446FFF7B6FDB3
:101E3000284F022D0646DFF8A08018BF0427042F84
:101E400018D1D8F81030C3F3800343B9012D224ACA
:101E5000224818D1136903402AD0194619E0601CA2
:101E6000EDD0FFF79BFD801BA04201D8002CE6D1EE
:101E7000032018E0D8F81031DB43C3F3800383F06C
:101E80000103DBB2E1E7D2F81011014018D041F0B4
:101E900000431348002B826942EA030282610E4A22
:101EA00003DB53610120BDE8F081C2F81411F9E7AA
:101EB0001369D90302D54FF4803353610020F2E750
:101EC000D2F81031DB03F9D54FF48033C2F8143166
:101ED000F4E700BF04000080002000520000EE176D
:101EE000CC060024F8B5284E0D461746337D012B4D
:101EF00048D001F178430120B3F5801F307531D30C
:101F0000A1F10163B3F5801F2BD2022400232146E7
:101F10004CF25030B361FFF785FF00BB012C1B4B27
:101F200022D1DA6842F00202DA60BFF36F8FBFF3AA
:101F30004F8F0023FA58EA500433202BFAD1BFF315
:101F40006F8FBFF34F8F4CF250302146FFF76AFF7F
:101F5000012C0E4B0FD1DA6822F00202DA60002366
:101F60003375F8BD0446D1E7D3F80C2142F00202E4
:101F7000C3F80C21D9E7D3F80C2122F00202C3F8F0
:101F80000C21ECE70220ECE7CC06002400200052F4
:101F900001F00303032B17D11D4BDA6822F0300246
:101FA000DA60D3F80C2122F03002C3F80C21DA6891
:101FB0000243DA60D3F80C210243C3F80C219A697A
:101FC00042F010029A617047CA070BD5104BDA68CD
:101FD00022F03002DA60DA680243DA60DA6842F04E
:101FE0008802DA608B0711D5094BD3F80C2122F057
:101FF0003002C3F80C21D3F80C211043C3F80C01B4
:10200000D3F80C2142F08802C3F80C21704700BFBE
:102010000020005210B5CC070BD50F4CE36823F419
:10202000E663E360E36843EA0023134343F0840379
:10203000E3608B070FD50849D1F80C3123F4E66330
:10204000C1F80C31D1F80C3143EA0020024342F0D0
:102050008402C1F80C2110BD002000522DE9F84F78
:10206000DFF820810546894698F81430012B00F0EE
:1020700083800121002388F814104468C8F81830C0
:102080000C4006D04CF25030FFF7CCFE041E18BFB7
:1020900001246B68980707D474B10124002388F8E1
:1020A00014302046BDE8F88F02214CF25030FFF783
:1020B000B9FE0028F0D0F0E72E68012E27D169681C
:1020C0002869FFF765FFC9070CD531464CF250303F
:1020D000FFF7A8FE294A041ED36818BF012423F085
:1020E0000803D3606B689A07D8D502214CF25030B0
:1020F000FFF798FE214A002818BF44F00104D2F8E7
:102100000C31E4B223F00803C2F80C31C6E74FF0FB
:10211000FF33DFF868A01A4EC9F80030AF68D5E980
:1021200002231344BB42B9D9D5F804B038462A6912
:102130005946FFF76FFF1BF0010009D001214CF257
:102140005030FFF76FFEDAF80C303340CAF80C302D
:102150006B689B0709D502214CF25030FFF762FEF5
:10216000DAF80C313340CAF80C3118B10446C9F81A
:10217000007093E70137D2E7022492E70020005273
:10218000FBF8FFFFCC0600242DE9F74F0023DFF812
:10219000CC914FF0B0440A6832FA03F502D103B093
:1021A000BDE8F08F012505FA03FA1AEA020200F0F1
:1021B000BF804E6803274FEA4308D1F808C006F0F5
:1021C000030507FA08FE6F1E6FEA0E0E012F33D8C3
:1021D000876807EA0E0BCF6807FA08F747EA0B078C
:1021E0008760476827EA0A0AC6F300179F4047EA54
:1021F0000A074760C7680CFA08FC022D07EA0E07B9
:102200004CEA0707C7601CD14FEAD30C03F0070A5A
:102210004FF00F0B00EB8C0C4FEA8A0ADCF82070B1
:102220000BFA0AFB27EA0B0B0F6907FA0AF747EAD2
:102230000B07CCF8207004E0032DDBD1BCF1010FBB
:10224000D8D1076805FA08F516F4403F07EA0E07EB
:1022500045EA070505606BD0D9F8F45023F0030771
:1022600003F0030C4FF00F0E45F0020507F1B047E5
:102270004FEA8C0CC9F8F45007F58067D9F8F45090
:102280000EFA0CFE05F002050195019DBD6825EAD8
:102290000E0E314DA8424DD005F58065A8424BD0B9
:1022A00005F58065A84249D005F58065A84247D06C
:1022B00005F58065A84245D005F58065A84243D064
:1022C00005F58065A84241D005F58065A8423FD05C
:1022D00005F58065A8423DD005F58065A84214BF8C
:1022E0000A25092505FA0CF516F4801F45EA0E05A6
:1022F000BD606FEA020725680CBF3D40154316F428
:10230000001F256065680CBF3D40154316F4003F73
:102310006560D4F884500CBF3D401543F603C4F803
:102320008450D4F8805054BF3D401543C4F88050C9
:10233000013330E70025D5E70125D3E70225D1E7B2
:102340000325CFE70425CDE70525CBE70625C9E71B
:102350000725C7E70825C5E70000025800440258D2
:102360000AB1816170470904FBE7436901EA03028E
:1023700021EA030141EA024181617047F7B5044651
:10238000E0B190F8953403F0FF021BB980F8942473
:1023900004F0D4FE03232068251D84F8953403F04F
:1023A00061FA237C8DF80030206895E80E0003F078
:1023B00091F9014630B1022384F89534012528466D
:1023C00003B0F0BD206803F053FA0028F3D126795A
:1023D00004F1140301270246C1B224338E4220D8EF
:1023E000002104F515730A46C8B22433864226D864
:1023F000237C8DF80030206895E80E0003F0B2FAD7
:1024000005460028D7D10123607484F89534237BD6
:10241000012B02D1204600F0F4FC206803F009FEF5
:10242000CDE723F80A0C013003F8237C03F8241CC1
:1024300003F8202C43F8142C43E90722CCE70131A0
:1024400003F8232C03F8240C03F8202C43F8142C55
:1024500043E90722C8E710B50446006894F89434AD
:10246000012B15D0012384F89434C3685B0606D58C
:10247000637B012B03D1836B43F48033836303F0CD
:10248000EBF9206803F0C7FD002084F8940410BD28
:102490000220FCE710B590F894240446012A0AD0E3
:1024A0000122417480F89424006803F0A4FD002008
:1024B00084F8940410BD0220FCE770B5054624247E
:1024C00001F00F0011F0800FC2F30A0200FB04F4C8
:1024D00014BF04F1140104F5157105EB040619BFCE
:1024E000012449194919002414BF747586F855420E
:1024F0008A604A7808700B7102B14883022B04BFCE
:1025000000234B7195F89434012B09D001232868DE
:1025100085F8943403F0E9FA002085F8940470BD3E
:102520000220FCE701F00F02242311F0800F02FBD0
:1025300003F310B514BF03F1140103F5157104463C
:10254000184415BF012300230919091914BF437545
:1025500080F855320A7094F89434012B09D0012385
:10256000206884F8943403F0FFFA002084F894047F
:1025700010BD0220FCE738B51546242401F00F02F7
:10258000544304F515710444C4E99853002384F8B6
:102590005422014484F85532C4F8683282790068C4
:1025A000012A08BFC4F8705203F014FC002038BDA3
:1025B00001F00F01242303FB0100D0F868027047EB
:1025C00038B51546242401F00F02544304F11401D8
:1025D0000444C4E90853002322750144A362012383
:1025E0006375827900689A4208BF256303F0F2FBA5
:1025F000002038BD38B501F00F0503790446AB4221
:102600002BD311F0800F4FF024031DD06B43012218
:1026100003F11401034401445A7501230D708B70BA
:1026200094F894249A421AD0206884F8943403F0E1
:1026300069FB2DB904F29C42A179206803F048FDA2
:10264000002084F8940438BD4B43002203F5157133
:102650000344014483F85522DFE70120F3E7022019
:10266000F1E738B501F00F0203790446934225D310
:10267000242311F0800F4FF0000502FB03F314BF79
:1026800003F1140103F51571184419BF0123091949
:102690000919002314BF437580F855328D700A70F4
:1026A00094F89434012B0BD00123206884F89434DF
:1026B00003F053FB284684F8945438BD0120FCE70E
:1026C0000220FAE701F00F03242253430A064CBF0D
:1026D00003F1140103F515710144006803F09ABA7F
:1026E0002DE9F04F066889B00446304603F0DDFC62
:1026F0000390002840F06E81206803F0A8FC0028B9
:1027000000F06881D6F8083806F500652068C3F344
:102710000D23C4F8D43403F09AFC8707236803D54B
:102720005A6902F002025A61184603F090FCC00692
:102730002DD52268936923F010039361D6F8208089
:1027400008F4F01308F00F07B3F5802F40F045812F
:1027500047F6F07318EA030F14D02423C8F30A19BC
:10276000304603FB07474A46D7F8601203F022FCC5
:10277000D7F860324B44C7F86032D7F868324B4420
:10278000C7F868322268936943F0100393612068A8
:1027900003F05DFC010300F13381206803F057FC76
:1027A00042030CD5274606F5106B4FF0000A20684F
:1027B00003F059FC0490049B002B40F0EB8120684F
:1027C00003F045FC002813DA6B6823F001036B600B
:1027D00094F8CC34012B40F084820021204684F808
:1027E000CC1400F021FB2268536903F000435361CD
:1027F000206803F02CFC03050AD5AB68DF0702D57F
:10280000204604F021FD2268536903F400635361FC
:10281000206803F01CFC000114D523685A6902F0FB
:1028200000625A6194F8CC24002A40F05E820121B3
:10283000204684F8CC145B6DC3F38303C4F8D03412
:1028400000F0F2FA206803F002FCC10433D56B6893
:102850001021206823F001036B6003F037F8207922
:1028600006F510634FF67F31039A904200F24182E1
:10287000EB6943F00113EB61E37B002B00F058821E
:10288000D5F8843043F00B03C5F884306B6C43F00B
:102890000B036B64D6F8003804F29C42206823F4E2
:1028A000FE63C6F80038A17903F012FC2268536970
:1028B00003F480535361206803F0C9FB820416D5EA
:1028C000206803F0F6FB206803F004F92768E07144
:1028D00000F048FFE2790146384602F04DFF2046FD
:1028E00004F09FFC2268536903F40053536120688D
:1028F00003F0ADFB030707D5204604F08EFC2268E9
:10290000536903F008035361206803F0A0FB070636
:1029100000F11982206803F09AFBC0020CD5A04692
:1029200006F5126901272379BB4200F22B82226847
:10293000536903F480135361206803F088FB81021C
:102940002BD594F804E0234606F532614FF0010CD4
:10295000E6451DD993F87C720868012F40F0288263
:10296000002880F22582D4F8D42482EA1040C207DD
:1029700000F11E8283F87B72B06940F08000B06184
:102980007069000600F114826B6843F400736B6099
:102990002268536903F400135361206803F057FB66
:1029A000410007D5204604F073FC2268536903F008
:1029B00080435361206803F04AFB42070AD523682D
:1029C0005D686B0702D5204604F066FC22685368F8
:1029D0002B43536009B0BDE8F08FB3F5402F7FF46F
:1029E000D1AE082204F29C413046C8F30A1803F025
:1029F000E1FA242303FB0747D7F868324344BFE6D4
:102A000006F53068A2460027206803F024FB0490F6
:102A1000049B002B3FF4C1AE049BDB0779D55FFA22
:102A200087FB2068594603F026FB10F0010F814612
:102A30001FD001232068C8F8083000F5306394F8EF
:102A400006C003EB4713016CBCF1010F9A6840F01C
:102A50008B8012F0080F07D0B348814209D91204C5
:102A600007D54FF4004203E012F0200F5AD0202285
:102A70009A6019F0080F21D00823AB49C8F8083034
:102A800023681A6C03F530638A4203EB4713986896
:102A900004D9000402D54FF4004098602046059206
:102AA00004F0A4FB059AA0498A4207D9A17901291B
:102AB00004D104F29C42206803F00AFB19F0100FC5
:102AC00002D01023C8F8083019F0020F14D073692F
:102AD000190603D56B6843F480636B609AF857322C
:102AE000012B06D10023594620468AF8573204F0BC
:102AF000C7FB0223C8F8083019F0200F02D02023AA
:102B0000C8F8083019F4005F03D04FF40053C8F838
:102B10000830049B013708F120080AF1240A5B08F9
:102B2000049375E7DFF800C2614501D9120498D417
:102B30001A69DAF87432C2F312029B1ACAF86832C0
:102B40006FB9D4F864222AB904F29C42012103F03F
:102B5000BFFA04E0D4F860221A44C4F8602259464F
:102B6000204604F049FB84E7DFF8C0C1614507D186
:102B700011043FF576AF9206F1D520229A60EEE778
:102B8000002FECD1D4F86432002BE8D104F29C423F
:102B90003946DCE7049BDA0740F19A805FFA8AF352
:102BA00020681946079303F06FFA10F0010F804672
:102BB00020D001210AF00F026B6B01FA02F223EA26
:102BC00002036B63CBF80810A17901290DD1D7E975
:102BD000072313443B62BAF1000F06D1636A23B99D
:102BE00004F29C42206803F073FA5FFA8AF12046EF
:102BF00004F00BFB18F0080F02D00823CBF80830C4
:102C000018F0100F02D01023CBF8083018F0400F46
:102C100002D04023CBF8083018F0020F10D05146F4
:102C2000304602F053FEFB7D012B06D100235FFAF4
:102C30008AF12046FB7504F027FB0223CBF808300D
:102C400018F0800F44D0D7E909329A4240D8A3EB5C
:102C50000208FB6921689845059128BF984601F54F
:102C6000106308F1030803EB4A134FEA9808069330
:102C7000069B99697B6A89B2414527D393420BD859
:102C8000059B0AF00F000121D3F83428814022EA85
:102C90000102C3F834281BE0A3EB0209FB69079A81
:102CA0009945059828BF9946A37900931FFA89F39F
:102CB000396A09F1030803F079F83B6ABA6A4FEA06
:102CC00098084B444A443B62BA62D1E79342D7D951
:102CD000049B0AF1010A24370BF1200B5B080493D3
:102CE00069E5204604F0C8FA7DE5204604F0ACFA18
:102CF000A8E59960203353F8202C22F4001243F801
:102D0000202CC3F8E811D3F8E02122F40012C3F814
:102D1000E021D3F8E02142F00062C3F8E021039AF9
:102D200001320392A0E500BF0A30544F0A31544FDC
:102D30006B6943F4005343F02B036B612B6943F041
:102D40000B032B61A6E5B369012204F257274FF06C
:102D5000240C23F08003B36106F53263207990429E
:102D60007FF6D8AD0CFB02F1795C012907D1196817
:102D700041F000611960196841F080411960013229
:102D80002033ECE798F83C30D9F80020012B09D12A
:102D9000002A07DA67F07F01204688F83B30C9B285
:102DA000FFF790FC013708F1240809F12009BAE582
:102DB0000CF1010C24332031CAE500BF0068120475
:102DC000436A70B519B913438362002070BD846AE9
:102DD0004E1E03EB14430024B44205D33F3113438A
:102DE00000EB81004360F0E704F14005013400EBA3
:102DF00085056D6803EB1543EEE703680020596213
:102E00007047012102680346C0F8D814002083F8F7
:102E1000CC04936943F000639361536D43F0805396
:102E200043F00303536570477047000038B5104CFA
:102E3000E36813F0040FE36805D103F00703181AE1
:102E400018BF012038BD23F007031843E060FEF7E8
:102E5000A5FD054663689B0401D50020F2E7FEF757
:102E60009DFD401BB0F57A7FF4D90120EAE700BF51
:102E700000480258024AD36843F08073D360704719
:102E800000480258F8B50446002874D00368D807F3
:102E90005ED42368990700F1AD802368DA0627D550
:102EA0009C4A1369916A03F03803082B07D0182B4A
:102EB00040F0038101F00303012B40F0FE80136812
:102EC000DB0502D5E369802B55D1FEF77FFD41F28A
:102ED0000303216A98428F4B00F2E8805A68202948
:102EE00022F0F8420CBF42F0804242EA81625A600E
:102EF0002368190700F1238123689A0600F14481B1
:102F000023685D071ED5844D2B6843F480732B60C6
:102F1000FEF744FD06462B68DA0540F15A81A368A6
:102F20007C4D012B40F05C812B6F43F001032B673C
:102F300041F28837FEF732FD764E0546336F9B0728
:102F400040F17481616A002940F0778100202BE014
:102F5000704A1369916A03F03803102B05D0182BBF
:102F60000BD101F00303022B07D113689A0390D50C
:102F70006368002B8DD1012016E06368654DB3F5C1
:102F8000803F12D12B6843F480332B60FEF706FD9F
:102F9000604E054633689B033FF57BAFFEF7FEFCB2
:102FA000401B6428F6D90320F8BDA3B92B6823F48D
:102FB00080332B602B6823F480232B60FEF7EEFC1C
:102FC00006462B689F037FF564AFFEF7E7FC801B86
:102FD0006428F6D9E7E7B3F5A02F2B6803D143F4B3
:102FE00080232B60CEE723F480332B602B6823F4FF
:102FF0008023CAE74749E2680B69886A13F03803FF
:1030000003D0182B2AD1800728D10B685B0701D584
:10301000002AB0D03F4D2B6823F0190313432B60D7
:10302000FEF7BCFC06462B685F0711D5FEF7CEFC09
:1030300041F20303226998426B6822D823F47C335F
:10304000402A0CBF43F4003343EA02336B6024E7A9
:10305000FEF7A4FC801B0228E5D9A4E72D4D2B68C0
:10306000A2B123F0190313432B60FEF797FC064629
:103070002B685807DAD4FEF791FC801B0228F7D999
:1030800091E723F0FE4343EA0263DFE723F0010305
:103090002B60FEF783FC06462B6859077FF5FDAED3
:1030A000FEF77CFC801B0228F6D97CE7DA6822F068
:1030B0007C5242EA0162DA601AE7E369154D6BB3AC
:1030C0002B6843F080032B60FEF768FC06462B68F4
:1030D000DF0511D5FEF77AFC41F20303226A98421C
:1030E00010D86B68202A23F0F8430CBF43F08043CC
:1030F00043EA82636B60FBE6FEF750FC801B02280C
:10310000E5D950E7EB6823F07C5343EA0263EB60B8
:10311000EEE600BF00440258004802582B6823F036
:1031200080032B60FEF73AFC06462B68D8057FF536
:10313000DFAEFEF733FC801B0228F6D933E7636964
:10314000A34D83B16B6F43F001036B67FEF726FC61
:1031500006466B6F9B073FF5CFAEFEF71FFC801B4B
:103160000228F6D91FE76B6F23F001036B67FEF7A8
:1031700015FC06466B6F9F077FF5BEAEFEF70EFC93
:10318000801B0228F6D90EE7A369914D83B12B6805
:1031900043F480532B60FEF701FC06462B6898042D
:1031A0003FF5AEAEFEF7FAFB801B0228F6D9FAE631
:1031B0002B6823F480532B60FEF7F0FB06462B6848
:1031C00099047FF59DAEFEF7E9FB801B0228F6D936
:1031D000E9E6FEF7E3FB801B64287FF69CAEE2E69F
:1031E000B3B92B6F41F2883723F001032B672B6FA4
:1031F00023F004032B67FEF7D1FB06462B6F9807DD
:103200007FF5A0AEFEF7CAFB801BB842F6D9CAE62E
:10321000052B2B6F03D143F004032B6784E623F0C7
:1032200001032B672B6F23F0040380E6FEF7B6FB48
:10323000401BB8427FF682AEB5E6654D2B6903F0C0
:103240003803182B78D02B68022923F080732B6069
:1032500065D1FEF7A3FB06462B68990159D4AB6AEA
:10326000A26A23F47C7323F003031343E26A43EA64
:103270000213AB62636BA26B013B013A5B02120467
:103280009BB202F4FE021343226B013AC2F308021E
:103290001343E26B013A120602F0FE4213432B6322
:1032A000EB6A23F00103EB626B6BA26C6FF3CF034D
:1032B00043EAC2036B63EB6A226C23F00C031343F3
:1032C000EB62EB6A626C23F002031343EB62EB6A7E
:1032D00043F48033EB62EB6A43F40033EB62EB6A56
:1032E00043F48023EB62EB6A43F00103EB622B684B
:1032F00043F080732B60FEF751FB354D04462B687D
:103300009A013FF523AEFEF749FB001B0228F6D9D0
:1033100049E6FEF743FB801B02289DD943E6FEF7F2
:103320003DFB04462B689B017FF510AEFEF736FB94
:10333000001B0228F6D936E60129AA6A2B6B3FF456
:103340001AAE02F00301A06A81427FF414AEC2F308
:103350000512E16A8A427FF40EAE226BC3F30801C4
:10336000013A91427FF407AE626BC3F34621013A02
:1033700091427FF400AEA26BC3F30641013A914241
:103380007FF4F9ADE26BC3F30663013A93427FF435
:10339000F2AD6B6BA26CC3F3CC039A423FF4D6AD93
:1033A0000B4DEB6A23F00103EB62FEF7F7FA0646DA
:1033B000FEF7F4FAB042FBD06B6BA26C6FF3CF0355
:1033C00043EAC2036B63EB6A43F00103EB62BDE5C2
:1033D00000440258494B1A6902F03802102A30B5ED
:1033E00000F08880182A0CD0002A40F085801A68E6
:1033F000434812F0200F03D01B68C3F3C103D84029
:1034000030BD996A9D6ADC6A15F47C7FC5F30510AE
:103410005A6BF5D0C2F3CC0204F0010401F00301B1
:1034200007EE900A6243B7EE006A0129B8EEE77A28
:1034300006EE902AFAEEE96A4ED002293ED0002923
:103440004AD11A68920627D519682D4AC1F3C101DD
:103450001B6BCA40C3F3080307EE902AF8EEE75A45
:10346000C5EE877A07EE103AB8EEC77A37EE267ABD
:1034700037EE067A67EE877A204B1B6BC3F3462341
:10348000013307EE103AF8EEC76A87EEA67AFCEE33
:10349000C77A17EE900AB3E71B6BC3F3080307EE76
:1034A000903AF8EEE77A77EEA67A77EE867A9FED95
:1034B000156AC6EE076A67EEA67ADDE71B6BC3F3F3
:1034C000080307EE903AF8EEE77A77EEA67A77EE01
:1034D000867A9FED0D6AECE71B6BC3F3080307EEDA
:1034E000903AF8EEE77A77EEA67A77EE867A9FED55
:1034F000076ADEE7064883E7064881E7004402588A
:103500000090D0030024744C20BCBE4B0024744AAD
:1035100040787D0100093D002DE9F0410D4604464B
:1035200010B90120BDE8F081884A136803F00F0349
:103530008B42C0F0938023685F0700F19B801E07D9
:103540000BD583496069CA6902F07002904204D9C0
:10355000CA6922F070020243CA61D8060BD57C49C1
:10356000A069CA6902F4E062904204D9CA6922F4EF
:10357000E0620243CA6199060BD57549E0690A6A9F
:1035800002F07002904204D90A6A22F070020243EB
:103590000A629A070BD56E49E0688A6902F00F0249
:1035A000904204D98A6922F00F0202438A61DF0740
:1035B0006ED423689E0700F1A18064490A6802F076
:1035C0000F02AA4200F2A880580700F1B180190743
:1035D0000BD55F496069CA6902F07002904204D25B
:1035E000CA6922F070020243CA61DA060BD5584953
:1035F000A069CA6902F4E062904204D2CA6922F466
:10360000E0620243CA619B060BD5514AE169136A25
:1036100003F07003994204D2136A23F070030B4342
:103620001362FFF7D7FE4A494A4A8B69C3F3032363
:10363000D35C03F01F03D8408B6903F00F03D35C06
:10364000454A03F01F0320FA03F31360434B18604D
:10365000434BBDE8F0411868FEF740B9136823F00A
:103660000F030B431360136803F00F038B427FF4C7
:1036700058AF60E7364920698A6902F070029042CB
:103680007FF65DAF8A6922F0700202438A6156E7D5
:103690002F4BA1689A6922F470620A439A616168AB
:1036A0001A6802291DD112F4003F3FF43AAF1A699B
:1036B00041F28838264F22F007020A431A61FEF7CA
:1036C0006DF906463B69626803F03803B3EBC20F3D
:1036D0003FF46FAFFEF762F9801B4045F2D903203B
:1036E00020E7032902D112F0007FDEE7012902D191
:1036F00012F4807FD9E712F0040FD6E71449E0688E
:103700008A6902F00F029042BFF457AF8A6922F033
:103710000F0202438A6150E70A6822F00F022A432F
:103720000A600A6802F00F02AA427FF4FAAE4BE781
:10373000074920698A6902F070029042BFF447AFDE
:103740008A6922F0700202438A6140E70020005239
:103750000044025871B40008A4000024A80000240A
:10376000B000002408B5FFF735FE0B4A0B499369FA
:103770009269C3F3032302F00F02CB5C03F01F0333
:1037800020FA03F3885C064A00F01F0023FA00F0D9
:103790001060044A136008BD0044025871B4000868
:1037A000A4000024A800002408B5FFF7DBFF054BA8
:1037B000054ADB69C3F30213D35C03F01F03D8404F
:1037C00008BD00BF0044025871B4000808B5FFF7F7
:1037D000C9FF054B054ADB69C3F30223D35C03F041
:1037E0001F03D84008BD00BF0044025871B4000850
:1037F000F8B5394C06460D46A36A03F00303032BC4
:1038000067D0236823F080632360FEF7C7F807467C
:1038100023681A0149D4A36A326823F47C3343EA4B
:103820000233A362B368F268013B013A5B021204FF
:103830009BB202F4FE0213437268013AC2F308021B
:1038400013433269013A120602F0FE421343A363A6
:10385000E36A726923F0C0031343E362E36AB26967
:1038600023F020031343E362E36A23F01003E362CF
:10387000E36BF2696FF3CF0343EAC203E363E36AE6
:1038800043F01003E362E36AB5B943F40023E36253
:10389000114C236843F080632360FEF77FF80546F0
:1038A00023681B010FD5002005E0FEF777F8C01B49
:1038B0000228ADD90320F8BD012D0CBF43F48013BD
:1038C00043F40013E3E7FEF769F8401B0228E7D949
:1038D000F0E70120EFE700BF00440258F8B5394C8B
:1038E00006460D46A36A03F00303032B67D0236843
:1038F00023F080532360FEF751F8074623689A00AF
:1039000049D4A36A326823F07C7343EA0253A3626A
:10391000B368F268013B013A5B0212049BB202F405
:10392000FE0213437268013AC2F30802134332697C
:10393000013A120602F0FE4213432364E36A7269FD
:1039400023F440631343E362E36AB26923F4007330
:103950001343E362E36A23F48073E362636CF26906
:103960006FF3CF0343EAC2036364E36A43F48073F3
:10397000E362E36AB5B943F48003E362114C236860
:1039800043F080532360FEF709F8054623689B0047
:103990000FD5002005E0FEF701F8C01B0228ADD9C5
:1039A0000320F8BD012D0CBF43F4000343F08073E6
:1039B000E3E7FDF7F3FF401B0228E7D9F0E701201A
:1039C000EFE700BF004402582DE9F84303680546BD
:1039D00018011ED5AB6EB3F5001F2BD00FD8D3B195
:1039E000B3F5801F1DD001262B68D90551D5AB6DCD
:1039F000042B4DD8DFE803F0243F46292900B3F516
:103A0000401FF0D1854AA96E136D23F440130B4378
:103A100013650026E8E7814AD36A43F40033D36292
:103A2000F0E7022105F10800FFF7E2FE0646002854
:103A3000DAD1E7E7022105F12800FFF74FFFF5E7AC
:103A4000764AD36A43F40033D36234461CBB734ACC
:103A5000A96D136D23F007030B4313652B689A05BB
:103A600028D5EB6D802B43D017D8A3B3402B38D08B
:103A7000012634461EE0002105F10800FFF7B8FEDC
:103A80000446E3E7002105F12800FFF727FFF7E7E9
:103A900001263446E2E72646E0E7C02B02D0B3F524
:103AA000807FE5D154BB5D4AE96D136D23F4E0736B
:103AB0000B4313652B685B0531D5D5F8A830B3F5FA
:103AC000800F49D01CD8002B39D0B3F5001F3CD053
:103AD0000126344623E0514AD36A43F40033D362CB
:103AE000E0E7002105F10800FFF782FE0446D9E770
:103AF000002105F12800FFF7F1FEF7E72646D9E798
:103B0000B3F5C00F02D0B3F5000FE1D154BB434A67
:103B1000D5F8A810936D23F460030B4393652B68CD
:103B20001F0530D5D5F8AC30B3F1007F45D01BD898
:103B3000B3B3B3F1807F39D00126344623E0374A4E
:103B4000D36A43F40033D362E0E7002105F10800B3
:103B5000FFF74EFE0446D9E7002105F12800FFF7E4
:103B6000BDFEF7E72646DAE7B3F1407F02D0B3F1B6
:103B7000806FE1D13CBB294AD5F8AC10936D23F09E
:103B8000E0630B4393652B68980128D5EB6C202BE1
:103B90003BD01AD8DBB1102B31D0012634461EE0C1
:103BA0001E4AD36A43F40033D362E3E7002105F1F0
:103BB0000800FFF71DFE0446DCE7002105F12800A0
:103BC000FFF78CFEF7E72646DDE7302BE5D11CBB7F
:103BD000124AE96CD36C23F030030B43D3642B6897
:103BE000D9042CD52B6EB3F5005F74D018D8002BF8
:103BF00064D0B3F5805F67D0012634461FE0074AE2
:103C0000D36A43F40033D362E1E7022105F10800EF
:103C1000FFF7EEFD0446DAE72646E0E700440258E7
:103C2000B3F5405F02D0B3F5804FE5D1002C58D1F9
:103C30009D4A296E136D23F4E0430B4313652B68F3
:103C40009A040BD56B6EB3F5003F64D04BD8002BB4
:103C500051D0B3F5803F57D0012634462B685B0422
:103C60000CD5D5F8B030B3F1005F75D05BD8002B20
:103C700061D0B3F1805F68D0012634462B681F0401
:103C800011D52B6FB3F1805F6ED0B3F1005F71D0AF
:103C9000002B76D1002C77D1834A296F136D23F046
:103CA00040530B4313652B68D8017DD5AB6C032BB8
:103CB00000F2BF80DFE803F06F6AB66F7A4AD36A1A
:103CC00043F40033D362B1E7002105F10800FFF7A8
:103CD0008FFD0446AAE7002105F12800FFF7FEFD4D
:103CE000F7E72646ABE723F48032B2F5802F02D007
:103CF000B3F5403FB0D1A4B96B4A696E136D23F49C
:103D0000E0230B431365A9E7012105F10800FFF744
:103D10006FFD0446EFE7012105F12800FFF7DEFD06
:103D2000F7E726469AE723F08052B2F1804F02D09F
:103D3000B3F1405FA0D1ACB95B4AD5F8B010936D38
:103D400023F0E0430B43936598E7012105F1080058
:103D5000FFF74EFD0446EEE7012105F12800FFF7CD
:103D6000BDFDF7E7264689E74F4AD36A43F400339F
:103D7000D3628FE7012105F10800FFF739FD044602
:103D800088E7012634468EE726468CE7464AD36A02
:103D900043F40033D362002C4ED1434AA96CD36C58
:103DA00023F003030B43D3642B6859024ED53F4FD6
:103DB0003B6843F480733B60FDF7F0FD80463B6851
:103DC000DA053BD5002C75D1374BD5F8B4001A6F06
:103DD000424012F4407F0BD01A6F196F22F44072E8
:103DE00041F480311967196F21F4803119671A671E
:103DF000B0F5807F42D0D5F8B4302B4903F440723F
:103E0000B2F5407F4BD10869294A20F47C5002EA80
:103E1000131202430A61C3F30B03234A116F0B43CE
:103E2000136713E0022105F10800FFF7E1FC0446E7
:103E3000B1E701263446B7E72646B5E7FDF7AEFD04
:103E4000A0EB08006428BAD9032634462B68D807AB
:103E500009D5EB6F102B45D02ED8002B32D0082B74
:103E600039D0012634462B68990751D5AB6F052B05
:103E700064D8DFE803F0453F5D454545FDF78EFD1D
:103E8000DFF82480074641F28839D8F870309B0764
:103E9000B1D4FDF783FDC01B4845F6D9D4E70A69C4
:103EA00022F47C52B6E700BF004402580048025892
:103EB000CFFFFF002646C9E723F00802202A01D0E1
:103EC000182BCED1A4B9204AE96F536D23F03803E3
:103ED0000B435365C7E7012105F10800FFF788FC94
:103EE0000446EFE7012105F12800FFF7F7FCF7E7AB
:103EF0002646B8E7012105F10800FFF779FC0446E2
:103F0000FCB9114AA96F536D23F007030B435365A6
:103F10002B685A072BD5D5F89430052B00F26E810B
:103F2000DFE813F01A00140066011A001A001A00E4
:103F3000012105F12800FFF7D1FCE0E70126344616
:103F4000E6E72646E4E700BF00440258012105F1F8
:103F50000800FFF74DFC0446002C40F05281AA4AAD
:103F6000D5F89410936D23F007030B4393652B68EA
:103F70009B0610D5D5F89030B3F1005F00F060815A
:103F800000F24481002B00F04A81B3F1805F00F021
:103F90005081012634462B685F0610D5D5F89C3039
:103FA000B3F5006F00F06E8100F25281002B00F03B
:103FB0005881B3F5806F00F05E81012634462B688E
:103FC000180610D5D5F8A030B3F5804F00F07C81ED
:103FD00000F26081002B00F06681B3F5005F00F015
:103FE0006C81012634462B68190714D5D5F8843026
:103FF000B3F5805F07D1022105F12800FFF76EFCC1
:10400000002818BF0126804AD5F88410536D23F488
:1040100040530B4353652B68DA0614D5D5F8983016
:10402000B3F5807F07D1022105F12800FFF756FC88
:10403000002818BF0126744AD5F89810936D23F410
:1040400040730B4393652B681B031BD5D5F8A41055
:10405000B1F5803F00F04081B1F5003F07D0002965
:1040600040F0408105F10800FFF7C2FB0446002C38
:1040700040F03B81644AD5F8A410936D23F440339B
:104080000B4393652B685F030FD5D5F88830B3F5E4
:10409000001F00F03B81B3F5401F00F02D81B3F508
:1040A000801F00F02481012634462B68D80309D5EF
:1040B0002B6D002B00F03381B3F5803F00F03D8184
:1040C000012634462B68990007D5022105F1280006
:1040D000FFF704FC002818BF0126D5E900319A0338
:1040E00040F14381D5F88000B0F5807F00F03F813A
:1040F00000F22C81002800F02F810124DF0206D578
:1041000041486E6F026D22F0004232430265DE00CC
:1041100007D53D48D5F8B860026922F480423243A1
:104120000261980206D53848EE6E026D22F0807268
:10413000324302655A0009D5334A106920F4004021
:1041400010611069D5F8BC6030431061002B06DAAD
:104150002D486E6DC26C22F040523243C2641F0281
:1041600007D5294AD5F88C00536D23F44003034347
:104170005365CE0706D5002105F10800FFF738FB8F
:10418000074600B927466B689C0706D5012105F153
:104190000800FFF72DFB064600B93E466B6858073E
:1041A00006D5022105F10800FFF722FB044600B9FD
:1041B00034466B68190706D5002105F12800FFF782
:1041C0008DFB064600B926466B68DA0606D5012146
:1041D00005F12800FFF782FB044600B934466B68FE
:1041E0009B0600F1CA80201E18BF0120BDE8F8839D
:1041F000012105F12800FFF771FBACE601263446EA
:10420000B5E62646B3E600BF0044025823F08052CC
:10421000B2F1804F03D0B3F1405F7FF4BAAEACB9D6
:104220005B4AD5F89010536D23F0E0430B43536580
:10423000B1E6002105F10800FFF7DAFA0446EEE7DF
:10424000022105F12800FFF749FBF7E72646A2E621
:1042500023F48062B2F5805F03D0B3F5406F7FF442
:10426000ACAEACB94A4AD5F89C10936D23F4E05338
:104270000B439365A3E6002105F10800FFF7B8FAA8
:104280000446EEE7022105F12800FFF727FBF7E7D8
:10429000264694E623F40052B2F5004F03D0B3F55E
:1042A000C04F7FF49EAEACB9394AD5F8A010936DDB
:1042B00023F460430B43936595E6002105F1080064
:1042C000FFF796FA0446EEE7022105F12800FFF712
:1042D00005FBF7E7264686E6022105F12800FFF7F1
:1042E000FDFAC3E601263446CCE62646CAE6284A4D
:1042F000D36A43F40033D3627CB9254AD5F88810D9
:10430000536D23F440130B435365CEE6012105F1B1
:104310002800FFF7E3FA0446EEE72646C5E61C4A06
:10432000D36A43F40033D36274B9194A296DD36C4C
:1043300023F480330B43D364C4E6022105F1080063
:10434000FFF756FA0446EFE72646BBE620F48072F4
:10435000B2F5007F7FF4D1AE002C7FF4CFAE0C4CD1
:10436000626D22F44072024362653446C6E6084F2D
:10437000FA6A42F40032FA62EEE7022105F12800FF
:10438000FFF7ACFA00283FF42EAF01202EE700BF64
:104390000044025808B5FFF7E5F9054B054A1B6ACA
:1043A000C3F30213D35C03F01F03D84008BD00BF62
:1043B0000044025871B400084F4970B58C6A8E6A87
:1043C000CD6A16F47C3FC6F30533CA6B00F09080CB
:1043D00007EE903AC2F3CC03C5F3001204F00304D5
:1043E000B8EEE77A5343012CB7EE006A06EE903A36
:1043F000FAEEE96A6ED0022C5ED0002C6AD10B680E
:104400009B0647D50A688B6BC2F3C1013B4AC3F3D5
:104410000803CA4007EE902AF8EEE75AC5EE877AFD
:1044200007EE103AB8EEC77A37EE267A37EE067AFC
:1044300067EE877A304A936BC3F3462307EE103A50
:10444000B8EEC77A37EE067AC7EE876AFCEEE66A00
:10445000C0ED006A936BC3F3064307EE103AB8EE63
:10446000C77A37EE067AC7EE876AFCEEE66AC0EDD9
:10447000016A936BC3F3066306EE903AF8EEE66AC0
:1044800076EE866A87EEA67AFCEEC77A17EE903A49
:10449000836070BD8B6BDFED1A5AC3F3080307EE20
:1044A000903AF8EEE77A77EEA67A77EE867AC5EE5E
:1044B000876A67EEA67ABDE78B6BDFED125AC3F30E
:1044C000080307EE903AF8EEE77A77EEA67A77EEF1
:1044D000867AECE78B6BDFED0C5AC3F3080307EE2B
:1044E000903AF8EEE77A77EEA67A77EE867ADEE70C
:1044F000C0E90033CCE700BF004402580090D0036D
:104500000024744C20BCBE4B0024744A4F4970B543
:104510008C6A8E6ACD6A16F07C7FC6F305534A6CAE
:1045200000F0908007EE903AC2F3CC03C5F300226E
:1045300004F00304B8EEE77A5343012CB7EE006AA7
:1045400006EE903AFAEEE96A6ED0022C5ED0002CAC
:104550006AD10B689B0647D50A680B6CC2F3C10190
:104560003B4AC3F30803CA4007EE902AF8EEE75A25
:10457000C5EE877A07EE103AB8EEC77A37EE267A9C
:1045800037EE067A67EE877A304A136CC3F3462318
:1045900007EE103AB8EEC77A37EE067AC7EE876AAA
:1045A000FCEEE66AC0ED006A136CC3F3064307EE47
:1045B000103AB8EEC77A37EE067AC7EE876AFCEE95
:1045C000E66AC0ED016A136CC3F3066306EE903A27
:1045D000F8EEE66A76EE866A87EEA67AFCEEC77A91
:1045E00017EE903A836070BD0B6CDFED1A5AC3F37F
:1045F000080307EE903AF8EEE77A77EEA67A77EEC0
:10460000867AC5EE876A67EEA67ABDE70B6CDFEDAA
:10461000125AC3F3080307EE903AF8EEE77A77EE02
:10462000A67A77EE867AECE70B6CDFED0C5AC3F3D3
:10463000080307EE903AF8EEE77A77EEA67A77EE7F
:10464000867ADEE7C0E90033CCE700BF00440258B9
:104650000090D0030024744C20BCBE4B0024744A4C
:1046600010B5026852E8003F23F4907342E800312D
:1046700002680029F5D10F4C02F1080353E8003F0E
:10468000234002F1080C4CE800310029F4D1C36E3C
:10469000012B07D152E8003F23F0100342E800311C
:1046A0000029F7D12023C0F88C300023C36643676C
:1046B00010BD00BFFEFFFFEF7047806B08B5FCF731
:1046C000F7FE08BD7047000003682DE9F041D96985
:1046D00040F60F061A68044631429D6810D18E06D6
:1046E00040F1978002F0200605F080573E4300F02D
:1046F0009080436F002B00F08580BDE8F0411847A3
:10470000A64EA7482E401040304300F08280CF07CD
:1047100009D5D00507D501201862D4F8900040F0E3
:104720000100C4F890008F0709D5E80707D50220DB
:104730001862D4F8900040F00400C4F890004F07CD
:1047400009D5E80707D504201862D4F8900040F096
:104750000200C4F890000F070BD502F02000304390
:1047600007D008201862D4F8900040F00800C4F880
:1047700090000E050AD5500108D54FF4006018626C
:10478000D4F8903043F02003C4F89030D4F890303F
:10479000002B37D08B0609D502F0200205F080559A
:1047A0002A4303D0636F0BB1204698472668204602
:1047B000D4F89020B36802F0280203F0400353EAD3
:1047C000020521D0FFF74CFFB3685F0617D52268BA
:1047D00002F1080353E8003F23F04003083242E8A7
:1047E00000310029F3D1D4F8800040B16D4B03654E
:1047F000FDF74EFA30B1D4F88000036D7DE7204616
:10480000FCF756FEBDE8F081FCF752FEC4F890506C
:10481000F8E7E06E012840F0B580CE0640F1B280A6
:10482000D00640F1AF801022B4F85C001A629A689A
:10483000520677D5D4F880505B492A688A421ED048
:1048400018318A421BD018318A4218D018318A4256
:1048500015D018318A4212D018318A420FD018313F
:104860008A420CD018318A4209D001F556718A4229
:1048700005D018318A4202D018318A42FFD05168DF
:1048800089B2002943D0814241D2EA69A4F85E107E
:10489000B2F5807F2FD053E8002F22F4807243E8D6
:1048A00000210029F7D103F1080252E8002F22F07D
:1048B000010203F1080040E800210029F3D103F1CF
:1048C000080252E8002F22F0400203F1080040E8FD
:1048D00000210029F3D12022C4F88C20E16653E89E
:1048E000002F22F0100243E800210029F7D1D4F86C
:1048F0008000FDF7D7F80223B4F85C102367B4F802
:104900005E30C91A89B22046FFF7DCFE7AE78142A1
:104910007FF478AFEB69B3F5807F7FF473AF022348
:104920002367F0E7B4F85E20B4F85E1092B289B263
:1049300000293FF467AF801A81B200293FF462AFCB
:1049400053E8002F22F4907243E800200028F7D1AA
:10495000164D03F1080252E8002F2A4003F1080621
:1049600046E800200028F4D120226067C4F88C209B
:10497000E06653E8002F22F0100243E800200028F0
:10498000F7D1CCE7CF0213D56E0211D54FF48012C8
:1049900020461A62BDE8F04100F016BE010000108A
:1049A00020010004BB46000810000240FEFFFFEF9C
:1049B00008060BD502F0800005F40005284305D059
:1049C000A36F002B3FF41EAF204696E64F0611D58D
:1049D00056060FD553E8002F22F0400243E800218D
:1049E0000029F7D120232046A167C4F88830FFF7BB
:1049F00063FE07E70D0206D5500004D52046BDE84A
:104A0000F04100F0E3BDCB017FF5FCAE002ABFF61C
:104A1000F9AE2046BDE8F04100F0D7BDD0F88C20BB
:104A2000222A08B5036857D15B6AB0F86010826D1E
:104A30000B401370836D01338365B0F85E30013B2A
:104A40009BB2A0F85E30B0F85E309BB2002B42D132
:104A5000026852E8003F23F4907342E80031036893
:104A60000029F5D103F1080252E8002F22F00102DB
:104A700003F1080C4CE800210029F3D12022416702
:104A8000C0F88C20174A0167934205D1C26E012AF3
:104A90000ED0FCF78FFC1EE05A681102F6D553E8E1
:104AA000002F22F0806243E800210029F7D1EDE7D2
:104AB0000022C26653E8002F22F0100243E80021D2
:104AC0000029F7D1DA69D20601D510221A62B0F8AE
:104AD0005C10FFF7F7FD08BD9A6942F008029A6181
:104AE000F9E700BF000C0058D0F88C20222A08B546
:104AF000036854D1596AB0F860201140826D22F8E1
:104B0000021B8265B0F85E20013A92B2A0F85E20E6
:104B1000B0F85E2092B2002A40D153E8002F22F470
:104B2000907243E800210029F7D103F1080252E80E
:104B3000002F22F0010203F1080C4CE800210029AB
:104B4000F3D120224167C0F88C20174A01679342B5
:104B500005D1C26E012A0ED0FCF72CFC1EE05A686B
:104B60001102F6D553E8002F22F0806243E80021BD
:104B70000029F7D1EDE70022C26653E8002F22F0AA
:104B8000100243E800210029F7D1DA69D20601D5E5
:104B900010221A62B0F85C10FFF794FD08BD9A6904
:104BA00042F008029A61F9E7000C005803682DE909
:104BB000F047DD690446D3F800809E68D0F88C2069
:104BC000222A40F0B780B0F86830002B00F08D80CA
:104BD000B0F860704FF0000906F001064FF0040ACB
:104BE000AB0640F182802368A26D5B6A3B40137084
:104BF000A36D0133A365B4F85E30013B9BB2A4F80A
:104C00005E302368DD6968072AD0E9070AD518F401
:104C1000807F07D001221A62D4F8902042F001026E
:104C2000C4F89020AA0708D53EB102221A62D4F82F
:104C3000902042F00402C4F89020680708D53EB1E5
:104C4000C3F820A0D4F8903043F00203C4F89030A9
:104C5000D4F8903023B12046FCF72AFCC4F8909099
:104C6000B4F85E309BB2002BBAD1226852E8003F04
:104C700023F4807342E8003123680029F5D13048DD
:104C800003F1080252E8002F024003F1080545E84D
:104C900000210029F4D120226167C4F88C20294A20
:104CA000216793420AD05A68110207D553E8002FB2
:104CB00022F0806243E800210029F7D1E26E012A48
:104CC00034D10022E26653E8002F22F0100243E8BC
:104CD00000210029F7D1DA69D20601D510221A6223
:104CE000B4F85C102046FFF7EDFCB4F85E309BB2E0
:104CF000D3B1B4F868209A4216D9226802F10803A9
:104D000053E8003F23F08053083242E80031226824
:104D10000029F2D10C4B636752E8003F43F02003B7
:104D200042E800310029F7D1BDE8F0872046FCF7C2
:104D300041FBDAE79A6942F008029A61F4E700BFA2
:104D4000FEFFFFEF000C00581D4A000803682DE924
:104D5000F047DD690446D3F800809E68D0F88C20C7
:104D6000222A40F0B480B0F86830002B00F08A802E
:104D7000B0F860704FF0000906F001064FF0040A29
:104D8000AB067FD52368A26D596A394022F8021B11
:104D9000A265B4F85E20013A92B2A4F85E20DD6903
:104DA00068072AD0E9070AD518F4807F07D00122C6
:104DB0001A62D4F8902042F00102C4F89020AA07A9
:104DC00008D53EB102221A62D4F8902042F00402C3
:104DD000C4F89020680708D53EB1C3F820A0D4F8E5
:104DE000903043F00203C4F89030D4F8903023B1EF
:104DF0002046FCF75DFBC4F89090B4F85E309BB29F
:104E0000002BBDD1226852E8003F23F4807342E8B2
:104E1000003123680029F5D12F4803F1080252E838
:104E2000002F024003F1080545E800210029F4D1D4
:104E300020226167C4F88C20284A216793420AD057
:104E40005A68110207D553E8002F22F0806243E828
:104E500000210029F7D1E26E012A34D10022E26656
:104E600053E8002F22F0100243E800210029F7D177
:104E7000DA69D20601D510221A62B4F85C10204615
:104E8000FFF720FCB4F85E309BB2D3B1B4F86820D1
:104E90009A4216D9226802F1080353E8003F23F032
:104EA0008053083242E8003122680029F2D10C4BCD
:104EB000636752E8003F43F0200342E800310029D5
:104EC000F7D1BDE8F0872046FCF774FADAE79A6973
:104ED00042F008029A61F4E7FEFFFFEF000C005871
:104EE000E94A00080268C3698168F0B504460069B0
:104EF000156887B0014360690143A44819432840FD
:104F00000143E0681160516821F440510143A069F8
:104F100051609F498A421CBF216A0843916821F071
:104F20006E4121F430610143606A9160D16A21F0E1
:104F30000F010143D16297498A4212D1964A526DBC
:104F400002F03802182A00F0FF803BD8082A00F04F
:104F5000F380102A00F03881002A00F0E780012059
:104F600068E08E498A420DD18B4A526D02F00702E9
:104F7000052AF4D8DFE812F07C00E0002801E80000
:104F800005012B0086498A42EED086498A42EBD041
:104F900085498A42E8D085498A42CFD084498A42ED
:104FA000E2D084498A42DFD0794B9A42D7D17A4AFB
:104FB000936D03F00703052BD1D8DFE803F03643E8
:104FC000484D570F202A00F0DC80282AC7D1B3F5BE
:104FD000004F00F088804FF40040C2E04FF40040E2
:104FE000754B626A656833F8122005EB4501B0FB2A
:104FF000F2F39942B3D8B3EB053FB0D800234FF496
:1050000080771946FBF760FB0023064668081946BF
:105010002A46E6FB0701FBF757FB684BA0F54072F9
:105020009A429CD82368D86003E0FFF7B3F90028C0
:10503000D6D100204FF00113A3660023C4E91D332D
:1050400007B0F0BD6846FFF7B7F90198EFE703A88E
:10505000FFF75CFA0498EAE71368594813F0200F49
:10506000BED01368C3F3C103D840B9E75548B7E7CA
:10507000B3F5004F55D10023082B3FF670AF01A2C6
:1050800052F823F0B1500008BD5000085F4F0008EF
:105090005F4F0008C35000085F4F00085F4F0008D3
:1050A0005F4F0008CD5000080423E5E70823E3E73D
:1050B000FEF77AFB0346002BBBD014E0FEF786FB1D
:1050C000F8E76846FFF778F9019BF4E703A8FFF7D4
:1050D0001DFA049BEFE713F0200F394B03D0126841
:1050E000C2F3C102D340606A334A616832F81020CB
:1050F000B3FBF2F34A0802EB43034FF6EF72B3FB44
:10510000F1F3A3F1100191423FF629AF23F00F0212
:10511000C3F34203216892B21343CB6089E7294B62
:10512000E1E7FEF741FB002883D01AE0B3F5004F1A
:10513000C4D0FEF74BFBF6E7B3F5004FB4D068469A
:10514000FFF73AF90198EEE7B3F5004F124A1368FA
:10515000C1D013F0200F1A4803D01368C3F3C10362
:10516000D840616A144A636832F81120B0FBF2F04B
:1051700000EB5300B0FBF3F04FF6EF73A0F1100219
:105180004EE7B3F5004FCAD00E48EAE7F369FFCF08
:10519000000C005800100140004402580044004038
:1051A00000480040004C0040005000400014014006
:1051B00000780040007C004082B40008FFFC0F0033
:1051C0000090D00300093D00B3F5004F3FF46EAFEF
:1051D00003A8FFF79BF90498A5E700BF836A1A07A5
:1051E00010B506D50168846B4A6822F40042224358
:1051F0004A60DC0706D50168C46A4A6822F40032B6
:1052000022434A60990706D50168046B4A6822F474
:10521000803222434A605A0706D50168446B4A68C7
:1052200022F4802222434A60DC0606D50168C46B62
:105230008A6822F4805222438A60990606D5016862
:10524000046C8A6822F4005222438A605A0610D500
:105250000168446C4A68B4F5801F22F4801242EA67
:1052600004024A6005D14A68846C22F4C0022243D9
:105270004A601B0606D50268C16C536823F40023FC
:105280000B43536010BD2DE9F843DDF82090044630
:105290000D46174698462268D36935EA03030CBFCA
:1052A00001230023BB4201D0002022E0B9F1FF3FDF
:1052B000F2D0FCF773FBA0EB0800484529D8B9F100
:1052C000000F26D021680B685A07E4D5802DE2D064
:1052D000402DE0D0CE6916F008060CD008252046F7
:1052E0000D62FFF7BDF900230120C4F8905084F847
:1052F0008430BDE8F883CB691B05CCD54FF400633F
:1053000020460B62FFF7ACF9202384F88460C4F8D0
:1053100090300320EDE773B500260446C0F8906096
:10532000FCF73CFB236805461B681A071CD56FF089
:105330007E4332464FF40011009303462046FFF7A8
:10534000A2FF88B1226852E8003F23F0800342E8C0
:1053500000310029F6D12023C4F88830032000232F
:1053600084F8843002B070BD23681B685B0724D5C5
:105370006FF07E4300224FF48001204600932B46BD
:10538000FFF781FFC8B1226852E8003F23F4907311
:1053900042E8003122680029F5D102F1080353E800
:1053A000003F23F0010302F1080040E8003100292A
:1053B000F3D12023C4F88C30D0E720230020C4F898
:1053C0008830C4F88C30E0662067C8E710B5044622
:1053D00050B3D0F888301BB980F88430FCF7BEF8A1
:1053E00024232268C4F88830136823F00103136073
:1053F000A36A13B12046FFF7F1FE2046FFF772FDC6
:10540000012811D0236820465A6822F490425A603D
:105410009A6822F02A029A601A6842F00102BDE8F6
:1054200010401A60FFF777BF012010BD30B58165CD
:1054300000238168A0F85C20B1F5805FA0F85E20B1
:10544000436731D10369002B40F2FF1318BFFF23DC
:10545000A0F860300023C0F890302223C0F88C30D0
:10546000016801F1080353E8003F43F001030831EC
:1054700041E800340368002CF2D1456E8468B5F130
:10548000005F016935D1B0F86850954231D8B4F564
:10549000805F29D1C1B1264A426753E8002F42F408
:1054A000807243E8002121E029B90369002B0CBF79
:1054B000FF237F23CCE7B1F1805FC9D10369002BC3
:1054C0000CBF7F233F23C3E71A4A426703F1080258
:1054D00052E8002F42F0805203F1080040E800211A
:1054E0000029F3D1002030BD114A42670029D4D1F0
:1054F000ECE7B4F5805F16D151B10F4A426753E82B
:10550000002F42F4907243E800210029F7D1E9E727
:105510000A4A426753E8002F42F0200243E8002184
:105520000029F7D1DEE7044A42670029E7D1F1E715
:10553000AD4B00084D4D00081D4A0008E94A00081F
:1055400038B5D0F88C30202B16D1B9B1B2B10023C8
:105550000468C3660A4B9C420AD063681B0207D5E5
:1055600054E8003F43F0806344E80035002DF7D154
:10557000FFF75CFF002038BD0220FCE70120FAE7BE
:10558000000C0058436E30B52BB90123A0F86A30E7
:10559000A0F8683030BD0368094D9A689968094CD5
:1055A000C2F34262490F6B5C615C1B01B3FBF1F318
:1055B000A0F86A30AB5CA25C1B01B3FBF2F3E7E737
:1055C000A2B400089AB4000870477047704790F87A
:1055D0008430012B14D002682423C0F8883011686D
:1055E000136821F0005123F0010313600023436688
:1055F0001160202280F88430C0F888201846704757
:105600000220704770B590F884300446012B17D003
:1056100005682423C0F888302E682B6823F0010326
:105620002B60AB6823F060431943A960FFF7AAFF22
:1056300020232E60C0F88830002084F8840070BDDC
:105640000220FCE770B590F884300446012B17D097
:1056500005682423C0F888302E682B6823F00103E6
:105660002B60AB6823F060631943A960FFF78AFFE2
:1056700020232E60C0F88830002084F8840070BD9C
:105680000220FCE782B0002302460193019B013314
:105690000193019BB3F1706F1AD81369002BF5DAEF
:1056A0000A230193019B83B9136943F0010313613A
:1056B000019B01330193019BB3F1706F08D810690E
:1056C00010F00100F4D102B07047019B013BE8E704
:1056D0000320F8E784B038B505AD044685E80E0030
:1056E0009DF81930012B35D1836B23F4803383630C
:1056F000C36823F4840323F04003C360C36823F426
:105700004013C3609DF82030012B03D1C36843F4DC
:105710008013C3602046FFF7B5FF9DF81630012BBC
:1057200014D1E36D9BB2E365E36D43F07B7343F407
:105730000033E365A36823F01E03A360A36843F06E
:105740000603A360A36843F02003A360BDE83840CC
:1057500004B07047C36843F04003C360FFF792FF93
:105760009DF81D3023B9A36B43F48033A363D4E7C2
:10577000A36B23F48033F9E7022A4AD1274B284A46
:105780000B44934239D9274B274A0B44934236D9CD
:10579000A1F57403254AA3F51053934231D9A1F121
:1057A0008373234AA3F5E74393422CD3214B224A28
:1057B0000B44934229D9214B214A0B44934226D3CF
:1057C000204B214A0B44934223D3A1F1B7731F4AC4
:1057D000A3F5585393421ED31D4B1E4A0B449342CC
:1057E0002CBF06230723C26822F47052C260C2682D
:1057F00042EA8323C360002070470F23F3E70E23A0
:10580000F1E70D23EFE70C23EDE70B23EBE70A238A
:10581000E9E70923E7E70823E5E700BF405327FF4F
:10582000FF340C00401E1BFF3F420F007F4F120051
:1058300020D6130060B6E5FE5FE3160000D3CEFE6F
:1058400040771B00C05BB3FEC0912100207538007B
:10585000E05459FEE09C4100836843F001038360FB
:1058600000207047836823F00103836000207047A5
:1058700038B5C368012905460C4623F0C043C36010
:1058800013D1C368002443F00053C3600A200A34D4
:10589000FCF78AF86B69D90702D4C82CF6D1C82462
:1058A000A4F1C8035842584138BD69B9C36843F0F0
:1058B0008043C3600A200A34FCF776F86B69DA0784
:1058C000EED5C82CF6D1EAE70120EDE782B000233F
:1058D00002460193019B01330193019BB3F1706F69
:1058E00015D81369002BF5DA8901002341F0200156
:1058F00001931161019B01330193019BB3F1706F1F
:1059000005D8106910F02000F4D102B070470320D0
:10591000FBE782B0002302460193019B0133019310
:10592000019BB3F1706F13D81369002BF5DA0023D4
:10593000019310231361019B01330193019BB3F188
:10594000706F05D8106910F01000F4D102B07047E4
:105950000320FBE7D0F800381943C0F800180020F6
:105960007047000084B02DE9F843044609A880E898
:105970000E0000239DF824609DF82E50194603F177
:105980004002013304EB82020F2B5160F7D104F582
:105990000067002D6CD17B6843F002037B60A36B32
:1059A00023F40013A363236843F0400323602368B8
:1059B00043F0800323600023C4F8003E9DF82930A3
:1059C000012B5CD19DF82710002956D120464FF6B7
:1059D0007F38FFF7BFFF10212046FFF777FF014612
:1059E0002046FFF796FF0843002304F51062C0B27B
:1059F0004FF0904C19464FF0006E00383B617B61D0
:105A000018BF0120FB619E423BD8002204F53063A1
:105A10004FF0904C4FF0006E11464FF67F38964293
:105A200042D83B6923F480733B610023A3616FF08C
:105A3000804363619DF826301BB9A36943F01003CE
:105A4000A361A269224B1343A3619DF82A301BB1C5
:105A5000A36943F00803A361012D05D1A36943F0B5
:105A6000804343F00403A361BDE8F84304B07047EA
:105A7000A36B43F40013A3639DE71946A6E7032134
:105A8000A4E7D2F80090B9F1000F0BDA3BB9C2F8E5
:105A900000E011610133C2F808802032B3E7C2F898
:105AA00000C0F6E71160F4E7D3F80090B9F1000FF9
:105AB0000BDA3AB9C3F800E019610132C3F8088083
:105AC0002033ACE7C3F800C0F6E71960F4E700BF85
:105AD00000383C80D0F8083813F0060004D013F0EA
